:100000000C9411310C9442310C9442310C944231D5
:100010000C9442310C9442310C9442310C94423194
:100020000C9442310C9442310C9442310C94423184
:100030000C9442310C9442310C9442310C94423174
:100040000C9442310C9469560C9442310C94423118
:100050000C9442310C9442310D942D740D94C37E56
:100060000C9442310C94D6470C9442310C9442319A
:100070000C9442310C9442310C9442310C94423134
:100080000C944A600C9442310C9442310C944231ED
:100090000C9442310C9442310C9442310C94423114
:1000A0000C9442310C9442310C941C600C944231FB
:1000B0000C9442310C9442310C9442310C94EE5F1A
:1000C0000C9442310C9442310C9442310C944231E4
:1000D0000C9442310C9442310C9442310C944231D4
:1000E0000C9442313DBF23BF26BF29BF2CBF38BF70
:1000F0002FBF49BF32BF35BFF0F72CF81DF9DAFA30
:1001000022FC2DFC3DFC800188014A0152014A017C
:100110004A014A014A014A014A014A014A014A0187
:100120004A014A014A014A014A014A014A014A0177
:100130004A014A014A014A014A014A014A014A0167
:100140004A0102024A014A014A014A014A014A019E
:100150004A014A018C014A014A014A014A014A0105
:100160004A014A014A014A014A0166014C0154010F
:10017000460182018E017801A801AC0168015C0191
:10018000DA01000256014801CE01A801C80144016C
:10019000C6019A014201A001D001C40186018A0171
:1001A000B8016A01BE01FE016C015001B601860171
:1001B000EE01B0019001084AD73B3BCE016E84BCF2
:1001C000BFFDC12F3D6C74319ABD56833DDA3D00B1
:1001D000C77F11BED9E4BB4C3E916BAAAABE0000FA
:1001E00000803F05A84CCDB2D44EB93836A9020CD8
:1001F00050B9918688083CA6AAAA2ABE00000080B1
:100200003F07634236B79BD8A71A39685618AEBA6B
:10021000AB558C1D3CB7CC5763BD6DEDFD753EF6FF
:10022000177231BF000000803F08000000BE92241A
:1002300049123EABAAAA2ABECDCCCC4C3E0000004F
:1002400080BEABAAAAAA3E00000000BF000000804A
:100250003F0000000000084178D3BB4387D1133D25
:10026000190E3CC3BD4282AD2B3E68EC8276BED9EE
:100270008FE1A93E4C80EFFFBE01C4FF7F3F00002D
:10028000000000000D94E47D0D94677B0D94397B94
:100290000D94597B0D9444510D9441510D94900E41
:1002A0000D94447E0D94BC520D94367B0D94557B79
:1002B0000D9452100D94590E0D94477B0D940A2005
:1002C0000D94EA0E0D94960B0D94E41A0D94D352EE
:1002D0000D94417B0D94177E0D94357E0D94FF197E
:1002E0000D94E10D0D94A9500D9407630D942353C3
:1002F0000D94327B0D94E1220D9431630D94200D09
:100300000D9480520D94287B0D940C0A0D94767EEA
:100310000D940E510D94077E0D948F520D942C7BED
:100320000D946C7E0D94D42B0D94A1290D945B0C2F
:100330000D94A51B0D94DF7D0D94951C0D94221A30
:100340000D94E97D0D94D2270D94AE630D94261A79
:100350000D94707B0D94AC100D943D7B0D94EC2AA4
:100360000D94627E0D94A71B0D9428260D944E7E4D
:100370000D940F7E0D9406110D94A21B0D94217EF9
:100380000D9421410D9492820D94FD7D0D946B7B13
:100390000D94637B0D9463240D9490110D945D7BFB
:1003A0000D94F37D0D949F800D94643E0D94AF6386
:1003B0000D94CE630D944B7B0D94F0420D948727E2
:1003C0000D94440F0D94E3280D94D10A0D941A0452
:1003D0000D9445120D94D02D0D949E0F0D94587EC2
:1003E0000D945F630D9442120D948B230D94F80FBE
:1003F0000D9447090D94523F0D9461630D942B7E2B
:100400000D944F7B0D94B6520D940C450D945826C7
:100410000D94611E4E414E494E495459494E46CDA8
:10042000CCCC3D0AD7233C17B7D13877CC2B3295AB
:1004300095E6241FB14F0A000020410000C8420089
:10044000401C4620BCBE4CCA1B0E5AAEC59D740053
:10045000407A10F35A00A0724E18090010A5D4E893
:100460000000E87648170000E40B54020000CA9A26
:100470003B000000E1F50500008096980000004078
:10048000420F000000A086010000001027000000BD
:1004900000E803000000006400000000000A000003
:1004A0000000000100000000002C76D888DC674FB7
:1004B0000823DFC1DFAE59E1B1B796E5E3E453C6E7
:1004C0003AE651997696E8E6C28426EB898C9B62DF
:1004D000ED407C6FFCEFBC9C9F40F2BAA56FA5F489
:1004E00090055A2AF75C936B6CF9676DC11BFCE0B1
:1004F000E40D47FEF520E6B500D0ED902E03009404
:100500003577050080841E080000204E0A00000098
:10051000C80C333333330F986E12831141EF8D21A2
:1005200014893BE65516CFFEE6DB18D1844B381B09
:10053000F77C1D901DA4BBE424203284725E2281CE
:1005400000C9F124ECA1E53D27434F4D4D554E49DF
:10055000434154494F4E0044525952554E00455262
:10056000524F525300494E464F004543484F0047B3
:10057000322F47332062616420706172616D65744F
:100580006572730A00536C6565702E2E2E00205A1A
:100590003A200020593A200042656420583A200051
:1005A0004D65736820706F696E742063616E6E6F45
:1005B00074206265207265736F6C7665640A00430F
:1005C0006C69636B20746F20726573756D652E2E78
:1005D0002E004E6F206D6F76652E00456E6420668E
:1005E000696C65206C6973740A00426567696E20E6
:1005F00066696C65206C6973740A004D3132350090
:10060000286E6F2066696C652900534420707269FA
:100610006E74696E67206279746520004E6F742075
:100620005344207072696E74696E670A0043757274
:1006300072656E742066696C653A20005072696E4E
:10064000742074696D653A20006F6E2E0A006F6623
:10065000662E0A0047323620446562756720006ABC
:100660000565055E05570549056F66660044454208
:1006700055473A004B494C4C45442E20004D3131F2
:10068000332053006F6B0050533A310A0050533AF5
:10069000300A0050656761737573203132204F66F0
:1006A000662E002C20002C2000544845524D414C11
:1006B0005F50524F54454354494F4E004155544F9B
:1006C0005245504F52545F53445F53544154555315
:1006D00000454D455247454E43595F5041525345A1
:1006E0005200434153455F4C494748545F42524989
:1006F0004748544E45535300544F47474C455F4C71
:10070000494748545300534F4654574152455F5050
:100710004F574552004255494C445F50455243455E
:100720004E54004C4556454C494E475F4441544158
:10073000005A5F50524F4245004155544F4C455668
:10074000454C005052494E545F4A4F420050524F60
:100750004752455353004155544F5245504F525400
:100760005F54454D5000564F4C554D4554524943EA
:1007700000454550524F4D0053455249414C5F583A
:100780004F4E5F584F4646004649524D57415245DD
:100790005F4E414D453A4D61726C696E20627567DE
:1007A0006669782D312E312E782028476974687556
:1007B000622920534F555243455F434F44455F558F
:1007C000524C3A68747470733A2F2F676974687565
:1007D000622E636F6D2F4D61726C696E4669726D2A
:1007E000776172652F4D61726C696E2050524F5463
:1007F0004F434F4C5F56455253494F4E3A312E307E
:10080000204D414348494E455F545950453A506543
:1008100067617375732031322045585452554445F1
:10082000525F434F554E543A3120555549443A632F
:10083000656465326132662D343161322D3437346E
:10084000382D396231322D633535633632663336B1
:100850003766660A002F2F20004D31343520533C77
:10086000696E6465783E206F7574206F66207261D2
:100870006E67652028302D31290A0020540020524F
:1008800000416363656C65726174696F6E3A2050F4
:10089000005741524E494E4721204C6F77205A2035
:1008A0004A65726B206D6179206C65616420746F9C
:1008B00020756E77616E7465642070617573657301
:1008C0002E0A0020466C6F773A200000013637264A
:1008D00003FFFFFF353C3D380EFFFFFF312E303E5A
:1008E00012FFFFFFFF28FF0C0809FFFFFF1A1C186B
:1008F000FFFF2A08440AFF43206F7574206F6620AB
:1009000072616E67650A00536572766F20003A2047
:100910000020536572766F200050726F6265205A16
:10092000204F66667365743A200020643A0020699F
:100930003A0020703A00496E76616C6964206578EF
:100940007472756465720A0043290A0061626C65FD
:100950006420286D696E2074656D702000436F6C93
:100960006420657874727564657320617265200017
:100970004E6F2063617365206C696768740A004577
:100980004550524F4D204F4B0A003F5A206F75740F
:10099000206F662072616E676520282D32302074CA
:1009A0006F203230290A003A200050726F626520B1
:1009B0005A204F6666736574003F4B2076616C75F4
:1009C00065206F7574206F662072616E67652028E0
:1009D000302D3130292E0A00416476616E63652026
:1009E0004B3D004163746976652045787472756487
:1009F00065723A2000496E76616C6964206578748E
:100A000072756465720A0070012C0190012701B0B3
:100A1000012201C0011D01F0011801100213013073
:100A2000020E016002090190020401C002FF0000F1
:100A300003FA004003F5008003F000D003EB002030
:100A400004E6007004E100E004DC004005D700C0CB
:100A500005D2004006CD00D006C8008007C3003094
:100A600008BE00F008B900C009B400B00AAF00B079
:100A70000BAA00D00CA500000EA000500F9B00C0D8
:100A80001096005012910000148C00C0158700B021
:100A9000178200B0197D00D01B7800001E73004043
:100AA000206E0090226900F024640040275F0090CF
:100AB000295A00E02B5500102E500020304B00101A
:100AC000324600E033410090353C0010373700706B
:100AD000383200A0392D00B03A2800A03B23006036
:100AE0003C1E00103D1900903D1400103E0F007098
:100AF0003E0A00C03E0500003F0000403FFBFF8073
:100B00003FF6FFC03FF1FF1000C90210012C014069
:100B100001220170011801B0010E01F00104015021
:100B200002FA00B002F0003003E600D003DC0090CF
:100B300004D2007005C800A006BE000008B400B0D2
:100B400009AA00D00BA000600E960060118C000076
:100B500015820020197800C01D6E00A0226400B02C
:100B6000275A00902C500000314600E0343C001021
:100B7000383200903A2800603C1E00A03D140080EE
:100B80003E0A00203F000024F404D9201BC40C5C62
:100B90000E9804C4095F0265077101F405F900FBB2
:100BA00004B30048048700C10369005803550003DB
:100BB000034500BE023A008402310053022A002994
:100BC00002250004022000E4011C00C8011900AF46
:100BD00001170098011400840113007101100061D5
:100BE00001100051010E0043010D0036010B002BD6
:100BF000010B0020010B00150109000C0109000385
:100C0000010800FB000800F3000800EB000700E407
:100C1000000600DE000600D8000600D2000600CC68
:100C2000000500C7000500C2000500BD000400B9B2
:100C3000000400B5000400B1000400AD000400A9E8
:100C4000000400A5000300A20003009F0004009B15
:100C50000003009800030095000200930003009039
:100C60000003008D0002008B000300880002008654
:100C700000020084000300810002007F0002007D6A
:100C80000002007B0002007900020077000100767C
:100C90000002007400020072000100710002006F87
:100CA0000002006D0001006C0002006A0001006992
:100CB0000002006700010066000100650001006499
:100CC0000002006200010061000100600001005F9D
:100CD0000002005D0001005C0001005B0001005AA1
:100CE00000010059000100580001005700010056A2
:100CF00000010055000100540001005300000053A2
:100D00000001005200010051000100500001004F9D
:100D10000001004E0000004E0001004D0001004C9B
:100D20000001004B0000004B0001004A0001004997
:100D30000001004800000048000100470001004693
:100D4000000000460001004500000045000100448D
:100D50000001004300000043000100420000004287
:100D60000001004100000041000100400001003F7F
:100D70000000003F0001003E0000003E0001003D79
:100D80000000003D0001003C0000003C0000003C71
:100D90000001003B0000003B0001003A0000003A67
:100DA000000100390000003900010038000000385F
:100DB0000000003800010037000000370001003655
:100DC000000000360000003600010035000000354C
:100DD0000000003500010034000000340000003441
:100DE0000001003300000033000000330001003236
:100DF000000000320000003200010031000000312C
:100E00000000003100010030000000300000003020
:100E10000001002F0000002F0000002F0000002F15
:100E20000001002E0000002E0000002E0001002D09
:100E30000000002D0000002D0000002D0001002CFE
:100E40000000002C0000002C0000002C0001002BF2
:100E50000000002B0000002B0000002B0001002AE6
:100E60000000002A0000002A0000002A00010029DA
:100E700000000029000000290000002900000029CE
:100E800000010028000000280000002800000028C1
:100E900000000028000100270000002700000027B4
:100EA00000000027000000270001002600000026A7
:100EB000000000260000002600000026000100259A
:100EC000000000250000002500000025000000258E
:100ED0000000002500010024000000240000002480
:100EE0000000002400000024000100230000002373
:100EF0000000002300000023000000230000002366
:100F00000000002300010022000000220000002257
:100F10000000002200000022000000220001002149
:100F2000000000210000002100000021000000213D
:100F3000000000210000002100010020000000202E
:100F40000000002000000020000000200000002021
:100F500000000020000000200001001F0000001F12
:100F60000000001F0000001F0000001F0000001F05
:100F70000000001F0001001E0000001E0000001EF7
:100F80000000001E00000024F4D43050C38E20C2A4
:100F9000A24017828B7011127A910D816CD90AA828
:100FA00061E108C7586607615143061E4B5D05C1E4
:100FB00045A7041A411104093D98037139310340D2
:100FC00036DB0265339102D4305402802E1D026359
:100FD0002CEE01752AC501B028A001102781018FD0
:100FE0002564012B244B01E0223401AC211F018D2B
:100FF000200D01801FFC00841EED00971DDF00B84E
:101000001CD200E61BC600201BBC00641AB200B252
:1010100019A8000A19A0006A189900D11791004078
:10102000178B00B516840031167E00B31579003A8F
:10103000157300C7146F0058146A00EE1366008819
:1010400013630025135E00C7125B006C1257001576
:10105000125400C111510070114F0021114B00D6E4
:101060001049008D1047004610440002104200C095
:101070000F4000800F3E00420F3C00060F3B00CBAC
:101080000E3800930E37005C0E3500270E3400F347
:101090000D3200C10D3100900D3000600D2E003278
:1010A0000D2D00050D2C00D90C2B00AE0C29008550
:1010B0000C29005C0C2700350C27000E0C2600E8DC
:1010C0000B2400C40B2400A00B23007D0B23005A2B
:1010D0000B2100390B2100180B2000F80A1F00D942
:1010E0000A1E00BB0A1E009D0A1D00800A1D006327
:1010F0000A1C00470A1B002C0A1B00110A1A00F7E1
:10110000091A00DD091900C4091900AB0919009278
:101110000917007B091800630917004C09160036EF
:10112000091600200916000A091500F5081500E047
:10113000081400CC081400B8081400A40814009087
:101140000813007D0812006B0813005808120046AF
:1011500008120034081100230811001208110001C0
:10116000081100F0071000E0071000D0071000C0C1
:10117000071000B0070F00A107100091070E0083B1
:10118000070F0074070F0065070E0057070E004990
:10119000070E003B070D002E070E0020070D001361
:1011A000070D0006070D00F9060C00ED060D00E026
:1011B000060C00D4060C00C8060C00BC060C00B0DF
:1011C000060C00A4060B0099060C008D060B00828D
:1011D000060B0077060B006C060B0061060A005731
:1011E000060B004C060A0042060A0038060A002ECA
:1011F000060A0024060A001A060A0010060900075B
:10120000060A00FD050900F4050900EB050900E2E6
:10121000050900D9050900D0050900C7050900BE68
:10122000050900B5050800AD050800A50509009CE5
:10123000050800940508008C050800840508007C5A
:10124000050800740508006C050700650508005DC9
:10125000050700560508004E050700470507004032
:1012600005080038050700310507002A0507002397
:101270000507001C050600160507000F05070008F6
:1012800005060002050700FB040600F5040700EE52
:10129000040600E8040600E2040700DB040600D5AB
:1012A000040600CF040600C9040600C3040600BDFE
:1012B000040600B7040600B1040500AC040600A64D
:1012C000040600A00405009B040600950405009098
:1012D0000406008A04050085040500800406007ADF
:1012E00004050075040500700405006B0405006624
:1012F000040500610405005C040500570405005264
:101300000405004D04050048040500430405003EA3
:101310000404003A04050035040500300404002CE0
:1013200004050027040400230405001E0404001A19
:1013300004040016040500110404000D040400094F
:101340000405000404040000040400FC030400F885
:10135000030400F4030400F0030400EC030400E8B9
:10136000030400E4030400E0030400DC030400D8E9
:10137000030400D4030400D0030400CC030400C819
:10138000030300C50303000A4D657368206F6E6C8C
:1013900079207061727469616C6C7920706F7075FE
:1013A0006C617465642E0A0024F404D9201BC40CFB
:1013B0005C0E9804C4095F0265077101F405F90029
:1013C000FB04B30048048700C103690058035500BB
:1013D00003034500BE023A008402310053022A0092
:1013E0002902250004022000E4011C00C8011900A4
:1013F000AF0117009801140084011300710110005F
:101400006101100051010E0043010D0036010B0077
:101410002B010B0020010B00150109000C01090034
:1014200003010800FB000800F3000800EB000700C0
:10143000E4000600DE000600D8000600D200060028
:10144000CC000500C7000500C2000500BD00040077
:10145000B9000400B5000400B1000400AD000400B0
:10146000A9000400A5000300A20003009F000400DF
:101470009B00030098000300950002009300030006
:10148000900003008D0002008B0003008800020022
:101490008600020084000300810002007F00020039
:1014A0007D0002007B00020079000200770001004D
:1014B0007600020074000200720001007100020058
:1014C0006F0002006D0001006C0002006A00010064
:1014D000690002006700010066000100650001006C
:1014E0006400020062000100610001006000010070
:1014F0005F0002005D0001005C0001005B00010074
:101500005A00010059000100580001005700010075
:101510005600010055000100540001005300000076
:101520005300010052000100510001005000010071
:101530004F0001004E0000004E0001004D00010070
:101540004C0001004B0000004B0001004A0001006C
:101550004900010048000000480001004700010068
:101560004600000046000100450000004500010063
:10157000440001004300000043000100420000005D
:101580004200010041000000410001004000010054
:101590003F0000003F0001003E0000003E0001004F
:1015A0003D0000003D0001003C0000003C00000048
:1015B0003C0001003B0000003B0001003A0000003D
:1015C0003A00010039000000390001003800000035
:1015D000380000003800010037000000370001002B
:1015E0003600000036000000360001003500000023
:1015F0003500000035000100340000003400000018
:10160000340001003300000033000000330001000B
:101610003200000032000000320001003100000002
:1016200031000000310001003000000030000000F7
:10163000300001002F0000002F0000002F000000EC
:101640002F0001002E0000002E0000002E000100DF
:101650002D0000002D0000002D0000002D000100D5
:101660002C0000002C0000002C0000002C000100C9
:101670002B0000002B0000002B0000002B000100BD
:101680002A0000002A0000002A0000002A000100B1
:1016900029000000290000002900000029000000A6
:1016A0002900010028000000280000002800000098
:1016B000280000002800010027000000270000008B
:1016C000270000002700000027000100260000007E
:1016D0002600000026000000260000002600010071
:1016E0002500000025000000250000002500000066
:1016F0002500000025000100240000002400000057
:101700002400000024000000240001002300000049
:10171000230000002300000023000000230000003D
:10172000230000002300010022000000220000002E
:101730002200000022000000220000002200010020
:101740002100000021000000210000002100000015
:101750002100000021000000210001002000000005
:1017600020000000200000002000000020000000F9
:101770002000000020000000200001001F000000E9
:101780001F0000001F0000001F0000001F000000DD
:101790001F0000001F0001001E0000001E000000CE
:1017A0001E0000001E00000024F4D43050C38E2020
:1017B000C2A24017828B7011127A910D816CD90AE6
:1017C000A861E108C7586607615143061E4B5D05D5
:1017D000C145A7041A411104093D98037139310329
:1017E0004036DB0265339102D4305402802E1D0254
:1017F000632CEE01752AC501B028A00110278101D4
:101800008F2564012B244B01E0223401AC211F0100
:101810008D200D01801FFC00841EED00971DDF0050
:10182000B81CD200E61BC600201BBC00641AB20024
:10183000B219A8000A19A0006A189900D1179100DE
:1018400040178B00B516840031167E00B315790061
:101850003A157300C7146F0058146A00EE1366003F
:101860008813630025135E00C7125B006C125700DB
:1018700015125400C111510070114F0021114B007D
:10188000D61049008D104700461044000210420057
:10189000C00F4000800F3E00420F3C00060F3B008F
:1018A000CB0E3800930E37005C0E3500270E340047
:1018B000F30D3200C10D3100900D3000600D2E008F
:1018C000320D2D00050D2C00D90C2B00AE0C29007B
:1018D000850C29005C0C2700350C27000E0C260017
:1018E000E80B2400C40B2400A00B23007D0B230075
:1018F0005A0B2100390B2100180B2000F80A1F0099
:10190000D90A1E00BB0A1E009D0A1D00800A1D0088
:10191000630A1C00470A1B002C0A1B00110A1A004C
:10192000F7091A00DD091900C4091900AB091900EB
:10193000920917007B091800630917004C0916006B
:1019400036091600200916000A091500F5081500C9
:10195000E0081400CC081400B8081400A40814000F
:10196000900813007D0812006B081300580812003D
:101970004608120034081100230811001208110053
:1019800001081100F0071000E0071000D007100058
:10199000C0071000B0070F00A107100091070E004C
:1019A00083070F0074070F0065070E0057070E002E
:1019B00049070E003B070D002E070E0020070D0003
:1019C00013070D0006070D00F9060C00ED060D00CB
:1019D000E0060C00D4060C00C8060C00BC060C0087
:1019E000B0060C00A4060B0099060C008D060B0037
:1019F00082060B0077060B006C060B0061060A00DE
:101A000057060B004C060A0042060A0038060A0078
:101A10002E060A0024060A001A060A00100609000B
:101A200007060A00FD050900F4050900EB05090099
:101A3000E2050900D9050900D0050900C70509001C
:101A4000BE050900B5050800AD050800A50509009B
:101A50009C050800940508008C0508008405080012
:101A60007C050800740508006C0507006505080082
:101A70005D050700560508004E05070047050700ED
:101A80004005080038050700310507002A05070052
:101A9000230507001C050600160507000F050700B3
:101AA0000805060002050700FB040600F504070010
:101AB000EE040600E8040600E2040700DB0406006A
:101AC000D5040600CF040600C9040600C3040600BE
:101AD000BD040600B7040600B1040500AC0406000E
:101AE000A6040600A00405009B040600950405005A
:101AF000900406008A0405008504050080040600A1
:101B00007A04050075040500700405006B040500E7
:101B100066040500610405005C0405005704050027
:101B2000520405004D040500480405004304050067
:101B30003E0404003A0405003504050030040400A6
:101B40002C04050027040400230405001E040400DF
:101B50001A04040016040500110404000D04040016
:101B6000090405000404040000040400FC0304004C
:101B7000F8030400F4030400F0030400EC03040081
:101B8000E8030400E4030400E0030400DC030400B1
:101B9000D8030400D4030400D0030400CC030400E1
:101BA000C8030300C50303005374617274206F6699
:101BB0002075626C2E6C696E655F746F5F6465730F
:101BC00074696E6174696F6E5F6361727465736965
:101BD000616E2829006F7574206F6620626F756EC4
:101BE000647320696E2075626C2E6C696E655F741B
:101BF0006F5F64657374696E6174696F6E5F636152
:101C00007274657369616E28290046494E414C5FC4
:101C10004D4F564520696E2075626C2E6C696E655D
:101C20005F746F5F64657374696E6174696F6E5F12
:101C300063617274657369616E28290076657274D8
:101C40006963616C206D6F766520646F6E652069D5
:101C50006E2075626C2E6C696E655F746F5F646573
:101C60007374696E6174696F6E5F636172746573BA
:101C700069616E282900686F72697A6F6E74616C91
:101C8000206D6F766520646F6E6520696E207562C9
:101C90006C2E6C696E655F746F5F64657374696EDA
:101CA0006174696F6E5F63617274657369616E28D8
:101CB000290067656E65726963206D6F76652064C3
:101CC0006F6E6520696E2075626C2E6C696E655F43
:101CD000746F5F64657374696E6174696F6E5F635E
:101CE000617274657369616E2829004D6F76696E43
:101CF000672E2E2E005A2D4F66667365743A2000AB
:101D00004175746F20686F6D65004732380041750A
:101D1000746F74656D70005049442D4900504944FA
:101D20002D4400416363656C00412D7265747261DE
:101D3000637400412D74726176656C00567A2D6A69
:101D400065726B005873746570732F6D6D005973F5
:101D5000746570732F6D6D005A73746570732F6D99
:101D60006D004573746570732F6D6D0046696C2E40
:101D7000204469612E005072696E742066726F6D26
:101D8000205344005072696E742066726F6D205348
:101D900044004368616E67652066696C616D656EBD
:101DA0007400696E206D6F76655F746F28292066F8
:101DB0006565645F76616C756520666F7220585941
:101DC0003A004C656176696E6720473236004732CB
:101DD000362048656174696E67204E6F7A7A6C654B
:101DE0002E004732362048656174696E672042656F
:101DF000642E00446F6E65205072696D696E6700D5
:101E0000557365722D436F6E74726F6C6C656420D0
:101E10005072696D65004669786564204C656E672F
:101E20007468205072696D652E004D657368205688
:101E3000616C69646174696F6E2053746F70706552
:101E4000642E002C2065793D0029202D3E20286538
:101E5000783D002C2073793D0020436F6E6E6563E2
:101E600074696E6720776974682076657274696337
:101E7000616C206C696E65202873783D002C2065AC
:101E8000793D0029202D3E202865783D002C2073C7
:101E9000793D0020436F6E6E656374696E672077CD
:101EA00069746820686F72697A6F6E74616C206CF7
:101EB000696E65202873783D004C656176696E67B0
:101EC00020473236003F5370656369666965642058
:101ED000582C5920636F6F7264696E617465206F4E
:101EE0007574206F6620626F756E64732E0A003FF2
:101EF00028522965706561742076616C7565206E65
:101F00006F7420706C61757369626C653B206D75D0
:101F10007374206265206174206C65617374203174
:101F20002E0A003F537065636966696564206E6FB1
:101F30007A7A6C652074656D70657261747572650E
:101F4000206E6F7420706C61757369626C652E0A07
:101F5000003F5370656369666965642066696C61FA
:101F60006D656E742073697A65206E6F7420706C75
:101F700061757369626C652E0A003F537065636911
:101F800066696564207072696D65206C656E677442
:101F900068206E6F7420706C61757369626C652E59
:101FA0000A003F537065636966696564206E6F7AE5
:101FB0007A6C652073697A65206E6F7420706C612D
:101FC000757369626C652E0A003F537065636966BC
:101FD0006965642052657472616374696F6E204D27
:101FE000756C7469706C696572206E6F7420706CAA
:101FF00061757369626C652E0A003F526574726187
:102000006374696F6E204D756C7469706C6965726C
:10201000206D7573742062652073706563696669ED
:1020200065642E0A003F53706563696669656420C4
:102030006C6179657220686569676874206E6F7479
:1020400020706C61757369626C652E0A003F537075
:1020500065636966696564206265642074656D7096
:1020600065726174757265206E6F7420706C617535
:102070007369626C65202834302D31343043292E49
:102080000A0047323620636F6D6D616E6420737491
:1020900061727465642E2057616974696E67206689
:1020A0006F72206865617465722873292E0A002496
:1020B000F4D43050C38E20C2A24017828B7011120C
:1020C0007A910D816CD90AA861E108C75866076149
:1020D0005143061E4B5D05C145A7041A4111040971
:1020E0003D9803713931034036DB0265339102D4E8
:1020F000305402802E1D02632CEE01752AC501B0FA
:1021000028A001102781018F2564012B244B01E0B9
:10211000223401AC211F018D200D01801FFC0084A1
:102120001EED00971DDF00B81CD200E61BC6002084
:102130001BBC00641AB200B219A8000A19A0006AF8
:10214000189900D117910040178B00B51684003103
:10215000167E00B31579003A157300C7146F005846
:10216000146A00EE1366008813630025135E00C72F
:10217000125B006C12570015125400C1115100700F
:10218000114F0021114B00D61049008D1047004619
:1021900010440002104200C00F4000800F3E004279
:1021A0000F3C00060F3B00CB0E3800930E37005C4F
:1021B0000E3500270E3400F30D3200C10D310090B2
:1021C0000D3000600D2E00320D2D00050D2C00D9B4
:1021D0000C2B00AE0C2900850C29005C0C27003567
:1021E0000C27000E0C2600E80B2400C40B2400A0D2
:1021F0000B23007D0B23005A0B2100390B21001803
:102200000B2000F80A1F00D90A1E00BB0A1E009D01
:102210000A1D00800A1D00630A1C00470A1B002CCF
:102220000A1B00110A1A00F7091A00DD091900C477
:10223000091900AB091900920917007B09180063FE
:102240000917004C09160036091600200916000A65
:10225000091500F5081500E0081400CC081400B8B2
:10226000081400A4081400900813007D0812006BE5
:102270000813005808120046081200340811002301
:102280000811001208110001081100F0071000E009
:10229000071000D0071000C0071000B0070F00A102
:1022A00007100091070E0083070F0074070F0065E9
:1022B000070E0057070E0049070E003B070D002EC2
:1022C000070E0020070D0013070D0006070D00F98B
:1022D000060C00ED060D00E0060C00D4060C00C84C
:1022E000060C00BC060C00B0060C00A4060B0099FE
:1022F000060C008D060B0082060B0077060B006CA7
:10230000060B0061060A0057060B004C060A004245
:10231000060A0038060A002E060A0024060A001AD9
:10232000060A001006090007060A00FD050900F468
:10233000050900EB050900E2050900D9050900D0EF
:10234000050900C7050900BE050900B5050800AD6F
:10235000050800A50509009C050800940508008CE7
:10236000050800840508007C050800740508006C59
:10237000050700650508005D050700560508004EC5
:10238000050700470507004005080038050700312C
:102390000507002A050700230507001C050600168F
:1023A0000507000F0507000805060002050700FBEA
:1023B000040600F5040700EE040600E8040600E247
:1023C000040700DB040600D5040600CF040600C99C
:1023D000040600C3040600BD040600B7040600B1ED
:1023E000040500AC040600A6040600A00405009B3A
:1023F00004060095040500900406008A0405008583
:10240000040500800406007A0405007504050070C8
:102410000405006B04050066040500610405005C0A
:1024200004050057040500520405004D040500484A
:10243000040500430405003E0404003A0405003589
:10244000040500300404002C0405002704040023C4
:102450000405001E0404001A0404001604050011FB
:102460000404000D04040009040500040404000031
:10247000040400FC030400F8030400F4030400F067
:10248000030400EC030400E8030400E4030400E098
:10249000030400DC030400D8030400D4030400D0C8
:1024A000030400CC030400C8030300C50303002495
:1024B000F404D9201BC40C5C0E9804C4095F0265A7
:1024C000077101F405F900FB04B30048048700C15B
:1024D0000369005803550003034500BE023A008417
:1024E00002310053022A002902250004022000E4E0
:1024F000011C00C8011900AF0117009801140084E5
:10250000011300710110006101100051010E004320
:10251000010D0036010B002B010B0020010B0015F3
:102520000109000C01090003010800FB000800F389
:10253000000800EB000700E4000600DE000600D8FB
:10254000000600D2000600CC000500C7000500C24E
:10255000000500BD000400B9000400B5000400B18E
:10256000000400AD000400A9000400A5000300A2BF
:102570000003009F0004009B0003009800030095E7
:1025800000020093000300900003008D0002008B06
:10259000000300880002008600020084000300811E
:1025A0000002007F0002007D0002007B0002007933
:1025B0000002007700010076000200740002007241
:1025C000000100710002006F0002006D0001006C4C
:1025D0000002006A00010069000200670001006655
:1025E000000100650001006400020062000100615A
:1025F000000100600001005F0002005D0001005C5E
:102600000001005B0001005A000100590001005860
:102610000001005700010056000100550001005460
:10262000000100530000005300010052000100515E
:10263000000100500001004F0001004E0000004E5C
:102640000001004D0001004C0001004B0000004B58
:102650000001004A00010049000100480000004854
:10266000000100470001004600000046000100454F
:102670000000004500010044000100430000004349
:102680000001004200000042000100410000004142
:10269000000100400001003F0000003F0001003E3B
:1026A0000000003E0001003D0000003D0001003C34
:1026B0000000003C0000003C0001003B0000003B2B
:1026C0000001003A0000003A000100390000003922
:1026D0000001003800000038000000380001003719
:1026E0000000003700010036000000360000003610
:1026F0000001003500000035000000350001003405
:1027000000000034000000340001003300000033FA
:1027100000000033000100320000003200000032EF
:1027200000010031000000310000003100010030E4
:1027300000000030000000300001002F0000002FDA
:102740000000002F0000002F0001002E0000002ECE
:102750000000002E0001002D0000002D0000002DC3
:102760000000002D0001002C0000002C0000002CB7
:102770000000002C0001002B0000002B0000002BAB
:102780000000002B0001002A0000002A0000002A9F
:102790000000002A00010029000000290000002993
:1027A0000000002900000029000100280000002886
:1027B0000000002800000028000000280001002779
:1027C000000000270000002700000027000000276D
:1027D0000001002600000026000000260000002660
:1027E0000000002600010025000000250000002553
:1027F0000000002500000025000000250001002445
:102800000000002400000024000000240000002438
:10281000000100230000002300000023000000232B
:10282000000000230000002300000023000100221C
:102830000000002200000022000000220000002210
:102840000000002200010021000000210000002102
:1028500000000021000000210000002100000021F4
:1028600000010020000000200000002000000020E7
:1028700000000020000000200000002000000020D8
:102880000001001F0000001F0000001F0000001FCB
:102890000000001F0000001F0000001F0001001EBC
:1028A0000000001E0000001E0000001E000000C20C
:1028B0003100001C260000F4190000D80F0000EBC6
:1028C000080000C004000075020000400100002064
:1028D000746F6F206C6F6E672065787472757369A2
:1028E0006F6E2070726576656E7465640A00206391
:1028F0006F6C6420657874727573696F6E20707286
:102900006576656E7465640A005072656865617409
:102910002041425320636F6E6600507265686561A6
:102920007420504C4120636F6E66005049442D4422
:10293000005049442D44005049442D490050494419
:102940002D49005049442D50005049442D5000500D
:1029500049442D500020082046616374002008205F
:1029600046616374002008204661637400200820DB
:102970004D6178002008204D6178002008204D61CD
:1029800078002008204D696E002008204D696E00F7
:102990002008204D696E004F6666004F6E20004192
:1029A00075746F74656D700046616E207370656537
:1029B000640046616E2073706565640046616E2038
:1029C0007370656564004265640042656400426539
:1029D00064004E6F7A7A6C65004E6F7A7A6C65008F
:1029E0004E6F7A7A6C6500436F6E74726F6C005331
:1029F000746F72652073657474696E6773004265E5
:102A0000640042656400426564004E6F7A7A6C65CA
:102A1000004E6F7A7A6C65004E6F7A7A6C6500466C
:102A2000616E2073706565640046616E2073706529
:102A300065640046616E2073706565640054656D61
:102A40007065726174757265005654726176206D9E
:102A5000696E005654726176206D696E005654722C
:102A60006176206D696E00566D696E00566D696EF7
:102A700000566D696E00566D6178204500566D6197
:102A800078204500566D6178204500566D617820AC
:102A90005A00566D6178205A00566D6178205A00B0
:102AA000566D6178205900566D6178205900566D39
:102AB0006178205900566D6178205800566D617814
:102AC000205800566D61782058004D6F74696F6E04
:102AD00000416D6178204500416D617820450041DD
:102AE0006D6178204500416D6178205A00416D612B
:102AF00078205A00416D6178205A00416D6178203C
:102B00005900416D6178205900416D61782059006C
:102B1000416D6178205800416D6178205800416D09
:102B20006178205800412D74726176656C00412DEA
:102B300074726176656C00412D72657472616374A4
:102B400000412D7265747261637400416363656C4A
:102B500000416363656C004D6F74696F6E00040023
:102B60000005010003000501000504000000050048
:102B700003002066726F6D2063757272656E74203B
:102B80006D6573682E0A00537562747261637469AF
:102B90006E67206D65736820696E20736C6F74209A
:102BA000003F557365203020746F20003F496E76DA
:102BB000616C69642073746F7261676520736C6FF8
:102BC000742E0A003F557365203020746F20003F3B
:102BD00053746F7261676520736C6F742023207269
:102BE000657175697265642E0A003F454550524F04
:102BF0004D2073746F72616765206E6F742061760B
:102C000061696C61626C652E0A004D6573682045D0
:102C1000646974696E672053746F707065640044F2
:102C20006F6E652045646974696E67204D657368D1
:102C30000A00446F6E652045646974696E67204DB3
:102C40006573680046696E652054756E696E67200D
:102C50004D6573680028582C5929206F7574736965
:102C60006465207072696E7461626C652072616463
:102C70006975732E0A004F6666736574206F7574EC
:102C8000206F6620626F756E64732E20283020746A
:102C90006F2031306D6D290A0A006D2B682B632B74
:102CA0005E2B5D0A0062656420706C616E65206E4B
:102CB0006F726D616C203D205B00436F756C64200A
:102CC0006E6F7420636F6D706C657465204C534635
:102CD0002100436F727265637465645F5A3D003F03
:102CE0004572726F722070726F62696E6720706FCA
:102CF000696E742E202041626F7274696E67206F56
:102D00007065726174696F6E2E0A00436F7272652E
:102D1000637465645F5A3D00436F727265637465E6
:102D2000645F5A3D00436F727265637465645F5AF5
:102D30003D00454550524F4D206461746173697A7E
:102D400065206572726F722E0A00290A002062796E
:102D50007465733B20637263200053657474696EFD
:102D600067732053746F72656420280055424C20AD
:102D700053797374656D20726573657428290A0030
:102D8000206C6F616465642066726F6D2073746F70
:102D9000726167652E0A004D65736820002E0A0077
:102DA0003F43616E277420656E61626C6520002070
:102DB000696E697469616C697A65642E0A0A002912
:102DC0000A002062797465733B20637263200020DF
:102DD00073746F7265642073657474696E677320B1
:102DE00072657472696576656420280020286361C5
:102DF0006C63756C6174656429210A0020213D2093
:102E000000454550524F4D20435243206D69736D2C
:102E100061746368202D202873746F7265642920A3
:102E2000002053697A653A2000496E6465783A203B
:102E300000204D61726C696E3D563535290A0028B7
:102E4000454550524F4D3D00454550524F4D20761F
:102E5000657273696F6E206D69736D61746368204C
:102E6000004D65736820736176656420696E207318
:102E70006C6F74200020736C6F743D00206D65735F
:102E80006865735F656E643D004532454E443D00A4
:102E90004D657368206C6F616465642066726F6D48
:102EA00020736C6F74200048617264636F646564A2
:102EB0002044656661756C742053657474696E672F
:102EC00073204C6F616465640A00B80B0000B80B96
:102ED000000005000000B80B00000000FA430000ED
:102EE000FA4300008040000048424861A042486127
:102EF000A042000048440000D44243617264207242
:102F0000656D6F766564004361726420696E7365F8
:102F1000727465640000060900FE07019203212017
:102F20007FFF07FF07FF00000006000001070706FC
:102F3000020080808080800080030202060105A0DC
:102F4000A00507070600005050F850F8505005073C
:102F5000070600002078A07028F02005070706006B
:102F600000C0C810204098180507070600006090B0
:102F7000A040A89068020303060104C04080030734
:102F800007060100204080808040200307070601DB
:102F9000008040202020408005050506000120A873
:102FA00070A8200505050600012020F82020020356
:102FB000030602FFC04080050101060003F802027B
:102FC00002060200C0C005050506000108102040E9
:102FD00080050707060000708888888888700307C6
:102FE0000706010040C040404040E00507070600DA
:102FF00000708808708080F8050707060000F81048
:1030000020100808F005070706000010305090F85F
:103010001010050707060000F880F0080888700502
:103020000707060000708080F08888700507070693
:103030000000F80810202020200507070600007077
:10304000888870888870050707060000708888786F
:10305000080870020505060200C0C000C0C00206D4
:10306000060602FFC0C000C040800407070600003B
:1030700010204080402010050303060002F800F8ED
:103080000407070601008040201020408005070744
:1030900006000070880810200020050707060000C1
:1030A00070880868A8A8700507070600007088885F
:1030B000F8888888050707060000F08888F0888867
:1030C000F00507070600007088808080887005077B
:1030D00007060000F08888888888F0050707060042
:1030E00000F88080F08080F8050707060000F8806F
:1030F00080F0808080050707060000708880B8880F
:103100008870050707060000888888F88888880185
:103110000707060200808080808080800507070600
:103120000000381010101090600507070600008896
:1031300090A0C0A0908805070706000080808080CE
:103140008080F805070706000088D8A88888888846
:103150000507070600008888C8A89888880507071B
:1031600006000070888888888870050707060000B8
:10317000F08888F080808005070706000070888846
:1031800088A89068050707060000F08888F0A090DE
:1031900088050707060000788080700808F005079A
:1031A00007060000F8202020202020050707060041
:1031B0000088888888888870050707060000888846
:1031C0008888885020050707060000888888888836
:1031D000A8500507070600008888502050888805F9
:1031E000070706000088888850202020050707066A
:1031F0000000F80810204080F8030707060100E0EF
:103200008080808080E00505050600018040201058
:1032100008030707060100E02020202020E0050326
:1032200003060004205088050101060000F8020290
:103230000206020580400505050600007008788832
:10324000780507070600008080B0C88888F005056B
:1032500005060000708080887005070706000008DA
:103260000868988888780505050600007088F88049
:10327000700507070600003048E040404040050662
:10328000060600FF708888780870050707060000AA
:103290008080B0C888888801070706020080008007
:1032A000808080800308080601FF20002020202065
:1032B000A040040707060000808090A0C0A09003F3
:1032C0000707060100C04040404040E005050506F4
:1032D0000000D0A8A8A8A8050505060000B0C88869
:1032E0008888050505060000708888887005060630
:1032F0000600FFF08888F080800506060600FF784B
:103300008888780808050505060000B0C880808018
:1033100005050506000070807008F0040707060028
:10332000004040E040404030050505060000888828
:1033300088986805050506000088888850200505DE
:10334000050600008888A8A8500505050600008825
:10335000502050880506060600FF88888878087087
:10336000050505060000F8102040F80307070601D0
:103370000020404080404020010707060200808076
:103380008080808080030707060100804040204045
:10339000408005020206000268900000000600005E
:1033A0004D313137204D6573682025692073617672
:1033B00065640047323920532569004D313137208B
:1033C0004D657368202569206C6F616465640047F2
:1033D0003239204C256900536176652042656420AE
:1033E0004D657368004C6F616420426564204D65D3
:1033F0007368004D656D6F727920536C6F74004D6A
:10340000656D6F727920536C6F74004D656D6F72CE
:103410007920536C6F74004E6F2073746F72616704
:103420006500556E696669656420426564204C6577
:1034300076656C696E6700486F6D696E67205859D4
:103440005A004732392050342058257320592573AB
:103450002052256900202D2D2D2D2D00000000402B
:1034600000009842000016430000604300009543AE
:103470000000BA430000DF4300000244008014440F
:10348000000027440080394400004C4400805E4422
:103490000000714400C0814400008B4400000040E3
:1034A000000098420000164300006043000095436E
:1034B0000000BA430000DF430000024400801444CF
:1034C000000027440080394400004C4400805E44E2
:1034D0000000714400C0814400008B444732380032
:1034E0004F7574707574204D657368204D61700060
:1034F0004F6666205072696E746572204261636B1C
:1035000075700047323920532D31004F7574707536
:103510007420666F7220435356004732392054316D
:10352000004F757470757420666F7220486F7374E5
:103530000047323920543000556E69666965642051
:10354000426564204C6576656C696E67004D6573F5
:1035500068204C6576656C696E6700456469742007
:103560004D6573680056616C6964617465204D65D2
:103570007368004D616E75616C6C79204275696C81
:1035800064204D6573680047323920493939390A5A
:103590004732392050322042205430004275696C45
:1035A00064204D65736800556E69666965642042E4
:1035B0006564204C6576656C696E670037205361E1
:1035C000766520426564204D657368003620466943
:1035D0006E652054756E6520416C6C004732392051
:1035E00050342052393939205400352056616C69E5
:1035F00064617465204D65736800342046696E65AA
:103600002054756E6520416C6C004732392050346F
:103610002052393939205400332056616C69646175
:103620007465204D657368003220536D617274209B
:1036300046696C6C2D696E00473239205033205436
:10364000300031204275696C6420436F6C64204DFA
:10365000657368004732380A4732392050310055C7
:103660006E696669656420426564204C6576656CA8
:10367000696E670046616465204865696768740023
:1036800046616465204865696768740046616465E1
:1036900020486569676874004F75747075742055AB
:1036A000424C20496E666F00473239205700554220
:1036B0004C20546F6F6C73004F7574707574204D8F
:1036C000657368204D6170004D6573682053746F99
:1036D00072616765004D65736820456469740053C5
:1036E0007465702D42792D537465702055424C00DD
:1036F000446561637469766174652055424C004786
:103700003239204400416374697661746520554202
:103710004C0047323920410050726570617265007B
:103720004D343238004D3830005377697463682067
:10373000706F776572206F6666004D383100526594
:1037400073657420424C546F756368004D32383095
:10375000205030205331363000424C546F7563682E
:103760002053656C662D54657374004D32383020DB
:1037700050302053313230005072656865617420DA
:10378000414253005072656865617420504C41009D
:10379000436F6F6C646F776E005377697463682052
:1037A000706F776572206F6E004368616E67652089
:1037B00066696C616D656E74004368616E67652053
:1037C00066696C616D656E74004D36303020423034
:1037D0000044697361626C65207374657070657212
:1037E00073004D38340053657420686F6D65206F29
:1037F00066667365747300556E6966696564204218
:103800006564204C6576656C696E67004175746F00
:1038100020686F6D6500473238004D6F7665206116
:10382000786973004D61696E004D6F7665205800B0
:103830004D6F76652059004D6F7665205A004578AA
:10384000747275646572004D6F766520302E316D2F
:103850006D004D6F766520316D6D004D6F76652082
:1038600031306D6D004D6F7665206178697300456C
:1038700078747275646572004D6F7665205A004DDC
:103880006F76652059004D6F766520580045787435
:103890007275646572004D6F7665205A004D6F76C3
:1038A000652059004D6F7665205800507265706133
:1038B000726500496E697469616C697A6520454575
:1038C00050524F4D00436F6E74726F6C00526573AF
:1038D000746F7265206661696C73616665004C6F18
:1038E00061642073657474696E677300496E6974EE
:1038F00069616C697A6520454550524F4D0053749B
:103900006F72652073657474696E677300424C54FE
:103910006F7563680046696C616D656E74004D6F0C
:1039200074696F6E0054656D70657261747572654F
:10393000004D61696E004D3234004D3233202573E5
:1039400000556E6B6E6F776E20636F6D6D616E6488
:103950003A202200496E736572742066696C616D4D
:10396000656E7420616E6420707265737320627579
:1039700074746F6E20286F72204D313038290A0020
:10398000486F74656E6420746F6F20636F6C640A97
:1039900000206D65736820736C6F747320617661AD
:1039A000696C61626C652E0A003F496E76616C69D4
:1039B0006420736C6F742E0A005344206361726438
:1039C000206F6B0A006F70656E526F6F74206661B6
:1039D000696C65640A00766F6C756D652E696E6939
:1039E00074206661696C65640A00534420696E69DD
:1039F00074206661696C0A005374616E646172645C
:103A000020446576696174696F6E3A20004D656186
:103A10006E204D657368204865696768743A2000B8
:103A200023206F662073616D706C65733A20000A05
:103A30004D657368206F6E6C792070617274696176
:103A40006C6C7920706F70756C617465642E0A0AF5
:103A50000020616E642074616B652061206D65617A
:103A6000737572656D656E742E0A006D6D207468D5
:103A700069636B2E0A00427573696E657373204328
:103A8000617264206973200052656D6F766520262F
:103A9000206D656173757265206265640052656DA5
:103AA0006F7665207368696D00506C616365207383
:103AB00068696D2026206D65617375726500506CB4
:103AC000616365207368696D20756E646572206E30
:103AD0006F7A7A6C65004D65736820506F696E74FB
:103AE000204D656173757265642061743A20000A27
:103AF0004D657368206F6E6C7920706172746961B6
:103B00006C6C7920706F70756C617465642E0A003E
:103B10004D65617375726500506C616365207368F3
:103B2000696D2026206D656173757265004D6F7635
:103B3000696E6720746F206E65787400496E7661D7
:103B40006C6964206D617020747970652E0A0A00BA
:103B50003F28462961646520686569676874206646
:103B60006F7220426564204C6576656C20436F72ED
:103B700072656374696F6E206E6F7420706C61750E
:103B80007369626C652E0A0A003F43616E277420D8
:103B9000616374697661746520616E642064656137
:103BA000637469766174652061742074686520733C
:103BB000616D652074696D652E0A0A00426F746834
:103BC000205820262059206C6F636174696F6E73D2
:103BD000206D757374206265207370656369666912
:103BE00065642E0A0A003F496E76616C696420673D
:103BF0007269642073697A6520284A292073706588
:103C00006369666965642028322D39292E0A0A0005
:103C10003F285029686173652076616C756520695D
:103C20006E76616C69642028302D36292E0A0A00D0
:103C30003F2856296572626F7365206C6576656CE6
:103C400020697320696D706C61757369626C6520A1
:103C500028302D34292E0A0A003F28522965706524
:103C6000746974696F6E20636F756E7420696E7607
:103C7000616C69642028312B292E0A0A00446F697F
:103C80006E6720473239002073616E697479206352
:103C90006865636B73207061737365642E0A00201E
:103CA0002073746174653A004B696C6C2070696EA6
:103CB000206F6E203A00202000592D417869732032
:103CC0004D65736820506F696E74732061743A207B
:103CD00000202000582D41786973204D65736820BD
:103CE000506F696E74732061743A20004D455348DB
:103CF0005F595F444953542020004D4553485F5855
:103D00005F44495354202000475249445F4D415875
:103D10005F504F494E54535F592020004752494449
:103D20005F4D41585F504F494E54535F582020001B
:103D30004D4553485F4D41585F5920202828282879
:103D4000282833303029202F203229202B202833D7
:103D5000303029202F203229202D20283229293CBB
:103D600028333030293F2828282833303029202F85
:103D7000203229202B202833303029202F203229AF
:103D8000202D20283229293A283330302929293D6D
:103D9000004D4553485F4D41585F58202028282842
:103DA00028282833303029202F203229202B202882
:103DB00033303029202F203229202D202832292964
:103DC0003C28333030293F28282828333030292018
:103DD0002F203229202B202833303029202F203249
:103DE00029202D20283229293A2833303029292921
:103DF0003D004D4553485F4D494E5F5920202828CE
:103E00002828282833303029202F203229202D201F
:103E10002833303029202F203229202B2032293EF0
:103E20002830293F2828282833303029202F2032D5
:103E300029202D202833303029202F203229202BF3
:103E40002032293A28302929293D004D4553485F21
:103E50004D494E5F58202028282828282833303004
:103E600029202F203229202D202833303029202FBF
:103E7000203229202B2032293E2830293F2828288B
:103E80002833303029202F203229202D202833308C
:103E90003029202F203229202B2032293A2830297E
:103EA00029293D007A70726F62655F7A6F6666736A
:103EB00065743A2000706C616E6E65722E7A5F6672
:103EC0006164655F686569676874203A20005542DF
:103ED0004C206F626A65637420636F756E743A205C
:103EE00000204C6F616465642E004D65736820008E
:103EF0004E6F204D657368204C6F616465642E00C1
:103F00003A2000454550524F4D2044756D703A0A95
:103F100000526573656E643A20006F6B002C20655B
:103F2000653D002C207A653D002C2079653D002000
:103F300075626C2E6C696E655F746F5F6465737417
:103F4000696E6174696F6E5F6361727465736961D4
:103F50006E2878653D0020746F6F206C6F6E67204F
:103F6000657874727573696F6E2070726576656EB0
:103F70007465640A0020636F6C64206578747275E0
:103F800073696F6E2070726576656E7465640A0081
:103F90003A0A0020286D6D290020204D363033204C
:103FA000002055004C0046696C616D656E74206C94
:103FB0006F61642F756E6C6F6164206C656E6774E1
:103FC00068733A0A0020204D393030204B004C698C
:103FD0006E65617220416476616E63653A0A002005
:103FE000204D383531205A005A2D50726F626520AD
:103FF0004F66667365740020440020490020204D00
:104000003330312050005049442073657474696E18
:1040100067733A0A00204600204200204800202012
:104020004D3134352053004D6174657269616C20E7
:1040300068656174757020706172616D6574657218
:10404000733A0A00206D65736865732E0A0A00458D
:104050004550524F4D2063616E20686F6C642000A4
:104060000A416374697665204D65736820536C6FEF
:10407000743A2000205A0020204D34323020530062
:104080003A0A00205A0020590020204D32303620B4
:104090005800486F6D65206F66667365743A0A0054
:1040A000204500205A0020590020580020540020AC
:1040B000530020204D32303520510020453C6D61A9
:1040C000785F655F6A65726B3E0020583C6D617871
:1040D0005F785F6A65726B3E20593C6D61785F79ED
:1040E0005F6A65726B3E205A3C6D61785F7A5F6AE9
:1040F00065726B3E00416476616E6365643A20517F
:104100003C6D696E5F7365676D656E745F74696D34
:10411000655F75733E20533C6D696E5F66656564CF
:10412000726174653E20543C6D696E5F7472617695
:10413000656C5F66656564726174653E002054005D
:1041400020520020204D32303420500041636365FE
:104150006C65726174696F6E2028756E6974732F57
:104160007332293A20503C7072696E745F616363E8
:10417000656C3E20523C726574726163745F61636A
:1041800063656C3E20543C74726176656C5F61635C
:1041900063656C3E0A00204500205A00205900202B
:1041A000204D3230312058004D6178696D756D2099
:1041B000416363656C65726174696F6E2028756E0A
:1041C0006974732F7332293A0A00204500205A007F
:1041D00020590020204D3230332058004D6178693D
:1041E0006D756D20666565647261746573202875F0
:1041F0006E6974732F73293A0A00204500205A0013
:1042000020590020204D39322058005374657073B6
:104210002070657220756E69743A0A0020204D3254
:1042200030302044300A0020204D3230302044000D
:104230002044697361626C65640A0046696C616D53
:10424000656E742073657474696E67733A0020201C
:104250004D3134392043203B20556E6974732069F9
:104260006E2043656C736975730A002020473231F4
:10427000202020203B0054524947474552454400E6
:104280006F70656E003A20007A5F6D696E00795F2D
:104290006D696E00785F6D696E005265706F727443
:1042A000696E6720656E6473746F702073746174D7
:1042B00075730A001000C90210012C01400122018F
:1042C00070011801B0010E01F00104015002FA0062
:1042D000B002F0003003E600D003DC009004D2000E
:1042E0007005C800A006BE000008B400B009AA000E
:1042F000D00BA000600E960060118C0000158200AB
:1043000020197800C01D6E00A0226400B0275A005A
:10431000902C500000314600E0343C001038320050
:10432000903A2800603C1E00A03D1400803E0A0028
:10433000203F0000202F002042403A0020403A0059
:10434000556E696669656420426564204C657665D2
:104350006C696E6700205A00204A0020204D3432DC
:1043600031204900202047323920493939390A00A3
:104370006163746976652E0A00696E002053797353
:1043800074656D2076312E303120002020207C0A8B
:10439000004E414E0020202E20202000207C004C8A
:1043A00043443A0A004353563A0A0020666F72208B
:1043B000003A0A0A000A42656420546F706F6772FF
:1043C00061706879205265706F7274003F4D65733B
:1043D0006820746F6F2062696720666F72204545A0
:1043E00050524F4D2E0A00446F6E652E0A003F5505
:1043F0007365203020746F20003F496E76616C69D0
:10440000642073746F7261676520736C6F742E0A19
:10441000003F454550524F4D2073746F7261676580
:10442000206E6F7420617661696C61626C652E0A22
:1044300000446F6E652E0A003F557365203020746E
:104440006F20003F496E76616C69642073746F72EF
:1044500061676520736C6F742E0A003F45455052AA
:104460004F4D2073746F72616765206E6F742061A9
:104470007661696C61626C652E0A004732392050A2
:10448000322066696E69736865642E0A0058592087
:104490006F757473696465207072696E7461626CA3
:1044A00065207261646975732E0A003F4572726FF0
:1044B0007220696E20427573696E65737320436163
:1044C0007264206D6561737572656D656E742E0A18
:1044D000004D616E75616C6C792070726F62696EEF
:1044E0006720756E726561636861626C65206D65D9
:1044F0007368206C6F636174696F6E732E0A002994
:104500002E0A0A0050726F62696E67204D657368EB
:1045100020506F696E747320436C6F7365737420E1
:10452000746F2028004D65736820696E76616C6930
:1045300064617465642E2050726F62696E67206DCD
:104540006573682E0A004D657368207A65726F6521
:10455000642E0A0044656661756C742073746F7212
:1045600061676520736C6F7420302073656C6563C0
:104570007465642E0A004C6F6164696E672074650F
:1045800073745F7061747465726E2076616C7565AA
:10459000732E0A0A00496E76616C69642074657333
:1045A000745F7061747465726E2076616C75652ECF
:1045B00020282D3120746F2032290A0A004C6F63A5
:1045C0006174696F6E7320696E76616C6964617481
:1045D00065642E0A0A00456E74697265204D657324
:1045E0006820696E76616C6964617465642E0A0A7C
:1045F000007C3C3E5E2B3D3F2F5B5D3B2C2A225CCA
:10460000004572726F722077726974696E672074E8
:104610006F20454550524F4D210A004368616E6737
:10462000652066696C616D656E7400556E6C6F61B6
:10463000642066696C616D656E74004C6F61642006
:1046400066696C616D656E74005072656865617451
:1046500020414253005072656865617420504C419E
:10466000004368616E67652066696C616D656E7494
:10467000005052494E542050415553454400554E28
:104680004C4F41442046494C414D454E54004C4FFF
:1046900041442046494C414D454E54005075726787
:1046A00065206D6F726500436F6E74696E7565008D
:1046B000524553554D45204F5054494F4E533A00A3
:1046C00020204E6F7A7A6C653A20006368616E67CD
:1046D00065006F66207468652066696C616D656E43
:1046E00074005761697420666F722073746172740C
:1046F0000020204E6F7A7A6C653A200020006669AF
:104700006C616D656E7420756E6C6F6164005761CD
:10471000697420666F720020204E6F7A7A6C653A59
:1047200020002000506C6561736520776169742EEC
:104730002E2E0048656174696E67206E6F7A7A6C00
:10474000650020204E6F7A7A6C653A200020006860
:10475000656174206E6F7A7A6C652E005072657395
:104760007320627574746F6E20746F0020204E6F1A
:104770007A7A6C653A2000746F20636F6E74696E8C
:1047800075652E2E2E00616E642070726573732025
:10479000627574746F6E00496E7365727420666919
:1047A0006C616D656E740020204E6F7A7A6C653A8C
:1047B0002000200066696C616D656E74206C6F610D
:1047C00064005761697420666F720020204E6F7A12
:1047D0007A6C653A2000200066696C616D656E74C4
:1047E000207075726765005761697420666F72008A
:1047F000746F20726573756D65005761697420660A
:104800006F72207072696E740057726974696E6796
:1048100020746F2066696C653A20006F70656E20A9
:104820006661696C65642C2046696C653A20006F8E
:1048300070656E206661696C65642C2046696C65E4
:104840003A200046696C652073656C656374656425
:104850000A002053697A653A200046696C65206F2A
:1048600070656E65643A20002066696C653A2000C8
:10487000646F696E67006672657368004E6F7720BB
:1048800000454E4420535542524F5554494E450A17
:10489000002220706F73002220706172656E743A7E
:1048A0002200535542524F5554494E452043414CE6
:1048B0004C207461726765743A22004B494C4C4538
:1048C000442E2000747279696E6720746F206361D2
:1048D0006C6C207375622D67636F64652066696C0C
:1048E0006573207769746820746F6F206D616E79CD
:1048F000206C6576656C732E204D4158206C657672
:10490000656C2069733A004572726F723A006F707D
:10491000656E206661696C65642C2046696C653A39
:10492000200043616E6E6F74206F70656E2073752A
:104930006264697220006563686F3A0045312054F3
:104940004845524D414C2052554E41574159004225
:10495000454420544845524D414C2052554E4157F4
:10496000415900546865726D616C2052756E6177B3
:10497000617900506567617375732031322052652B
:104980006164792E005072696E74696E672E2E2EE6
:10499000005072696E7420706175736564005374A1
:1049A0006F7720424C546F756368004D3238302069
:1049B000503020533930004465706C6F7920424C80
:1049C000546F756368004D323830205030205331B9
:1049D0003000424C546F7563682053656C662D54EB
:1049E000657374004D3238302050302053313230EE
:1049F00000526573657420424C546F756368004DB6
:104A00003238302050302053313630004D61696EDD
:104A1000004D313235004D3234005072696E7420D1
:104A200061626F72746564005072696E74206672A0
:104A30006F6D2053440053746F70207072696E74F0
:104A400000526573756D65207072696E74004E6FEB
:104A50002053442063617264005061757365207057
:104A600072696E7400436F6E74726F6C0050726581
:104A7000706172650054756E6500496E666F2073D3
:104A8000637265656E0050726F6265205A204F66D2
:104A900066736574004D65736820456469746F7250
:104AA000004368616E67652066696C616D656E7450
:104AB000004368616E67652066696C616D656E7440
:104AC000004D3630302042300050726F6265205AFF
:104AD000204F666673657400466C6F7700466C6F96
:104AE0007700466C6F770046616E20737065656471
:104AF0000046616E2073706565640046616E2073C8
:104B000070656564004265640042656400426564E6
:104B1000004E6F7A7A6C65004E6F7A7A6C65004E43
:104B20006F7A7A6C650046616465204865696768DC
:104B30007400466164652048656967687400466171
:104B40006465204865696768740053706565640032
:104B50005370656564005370656564004D61696EEE
:104B6000005072656865617420504C412042656454
:104B7000005072656865617420504C4120456E6438
:104B8000005072656865617420504C410050726538
:104B900070617265005072656865617420414253AE
:104BA00020456E640050726568656174204142530F
:104BB000005072656865617420414253204265640B
:104BC00000507265706172650047323920503100C3
:104BD0004D31303920532569004D3139302053256E
:104BE0006900473238004275696C642043757374FC
:104BF0006F6D204D657368004265642054656D706B
:104C0000004265642054656D7000426564205465FF
:104C10006D7000486F74656E642054656D70004857
:104C20006F74656E642054656D7000486F74656EB6
:104C3000642054656D70004275696C64204D657325
:104C400068002E2569004732392050362043202D38
:104C500000496E666F2073637265656E0048656912
:104C600067687420416D6F756E7400486569676888
:104C70007420416D6F756E740048656967687420B3
:104C8000416D6F756E740045646974204D6573687D
:104C900000496E666F2073637265656E0041646AD9
:104CA000757374204D657368204865696768740082
:104CB00046696E652054756E6520436C6F7365732D
:104CC000740047323920503420540046696E652004
:104CD00054756E6520416C6C004732392050342089
:104CE0005239393920540055424C20546F6F6C733F
:104CF0000047323800473236204320422569204899
:104D00002569205000496E666F2073637265656E79
:104D10000056616C696461746520437573746F6DCE
:104D2000204D6573680056616C696461746520414B
:104D30004253204D657368004732380A47323620A7
:104D40004320423131302048323530205000566106
:104D50006C696461746520504C41204D6573680036
:104D60004732380A47323620432042373020483114
:104D7000383020500055424C20546F6F6C73004700
:104D80003239204A2569004C6576656C204D657383
:104D900068005369646520506F696E7473005369CD
:104DA000646520506F696E747300536964652050A8
:104DB0006F696E74730055424C20546F6F6C7300B2
:104DC000496E666F2073637265656E004772696431
:104DD000204D657368204C6576656C696E6700339D
:104DE0002D506F696E74204C6576656C696E670036
:104DF000473239204A300055424C20546F6F6C7353
:104E000000473239205033205220432E2569004973
:104E10006E666F2073637265656E004D616E7561BD
:104E20006C2046696C6C2D696E0047323920503217
:104E3000204220543000536D6172742046696C6CBE
:104E40002D696E00473239205033205430004669B6
:104E50006C6C2D696E20416D6F756E740046696CC7
:104E60006C2D696E20416D6F756E740046696C6CB7
:104E70002D696E20416D6F756E74004275696C64AA
:104E8000204D657368004D65736820696E76616CAE
:104E90006964617465642E0A00496E666F207363ED
:104EA0007265656E00496E76616C69646174652037
:104EB000436C6F7365737400473239204900496E43
:104EC00076616C696461746520416C6C00436F6E3F
:104ED00074696E756520426564204D65736800478E
:104EE000323920503120430046696C6C2D696E20A8
:104EF0004D657368004275696C6420436F6C642073
:104F00004D657368004732380A4732392050310006
:104F10004275696C6420437573746F6D204D6573C1
:104F200068004275696C6420414253204D65736886
:104F3000004732380A4D31393020533131300A4D73
:104F400031303920533235300A4732392050310A56
:104F50004D3130342053300A4D313430205330003D
:104F60004275696C6420504C41204D657368004760
:104F700032380A4D313930205337300A4D3130390B
:104F800020533138300A4732392050310A4D313000
:104F9000342053300A4D3134302053300055424CC8
:104FA00020546F6F6C730000060900FE00000000C3
:104FB0000001090008FE000005080806000040F096
:104FC000C88888987810050808060000C0F8888806
:104FD000888888F80505050600012030F83020058E
:104FE00008080600002070F820202020E0050909AC
:104FF0000600FF2070A8A8B8888870200509090657
:1050000000FFE080C0B0A828302828050909060064
:10501000FFF8A88888888888A8F8050A0A0600FE8C
:10502000205050505088A8A888700303030600033E
:1050300040A04025753A2530327500253032753A4A
:10504000253032750025756420253032753A2530BB
:10505000327500202020202020005A0059002020F6
:10506000202000580009200000000000000000007F
:10507000000000003FFFF000000000000000000002
:105080000000003800700000000000000000000078
:10509000000030FC300000000000000000000000B4
:1050A0000020FC10000000000000000000000000D4
:1050B0002078100000000000000000000000002028
:1050C00030100000000000000000000000002C0074
:1050D000D03FC0000000000000002082002E31D030
:1050E0007FE0000000000000001041002F7BD07F17
:1050F000E0000000000000001041002F7BD07FE0A6
:10510000000000000000002082002E31D03FC000CF
:105110000000000000004104002C00D03FC000004F
:1051200000000000008208002030107FE000000036
:10513000000000008208002078107FE000000000DE
:1051400000000041040020FC107FE000000000008F
:10515000000020820030FC301F80000000000000B2
:10516000000000003800700F000000000000000088
:10517000FFFFC03FFFF0060000000000000000FF3E
:10518000FFC0000000000000000000000000000060
:10519000003FFFF0000000000000000000000000E1
:1051A0003800700000000000000000000000003126
:1051B000863000000000000000000000000023878F
:1051C0001000000000000000000000000027879091
:1051D0000000000000000000000000002F87D00049
:1051E00000000000000000000000002F03D03FC0BE
:1051F000000000000000002082002030107FE0004E
:105200000000000000001041002078107FE0000046
:1052100000000000001041002078107FE000000036
:10522000000000002082002030103FC0000000007D
:105230000000004104002F03D03FC0000000000028
:1052400000008208002F87D07FE0000000000000EF
:10525000008208002787907FE00000000000000027
:105260004104002387107FE00000000000000020C0
:1052700082003186301F8000000000000000000026
:10528000003800700F0000000000000000FFFFC0A9
:105290003FFFF0060000000000000000FFFFC0001C
:1052A00000003A004361703A00205A00205900582B
:1052B0000020204D61783A2000205A0020590058E3
:1052C0000020204D696E3A20004F6E20004F666628
:1052D00000536F667420656E6473746F70733A2048
:1052E0000023646566696E652044454641554C540B
:1052F0005F4B64200023646566696E652044454603
:1053000041554C545F4B69200023646566696E65A6
:105310002044454641554C545F4B70200050494451
:10532000204175746F74756E652066696E69736867
:105330006564212050757420746865206C617374F5
:10534000204B702C204B6920616E64204B642063DD
:105350006F6E7374616E74732066726F6D20626518
:105360006C6F7720696E746F20436F6E6669677526
:10537000726174696F6E2E680A005049442041754D
:10538000746F74756E65206661696C656421207444
:10539000696D656F75740A00453120544845524D5A
:1053A000414C2052554E4157415900546865726D29
:1053B000616C2052756E61776179004531204865D6
:1053C0006174696E67206661696C65640048656137
:1053D00074696E67206661696C6564005049442099
:1053E0004175746F74756E65206661696C656421C2
:1053F0002054656D706572617475726520746F6F8D
:1054000020686967680A00204B643A2000204B69D5
:105410003A2000204B703A20000A20436C617373DD
:10542000696320504944200A002054753A20002026
:105430004B753A2000206D61783A2000206D696E2E
:105440003A200020643A200020626961733A20000B
:10545000504944204175746F74756E6520666169AA
:105460006C6564212042616420657874727564659E
:1054700072206E756D6265720A0050494420417554
:10548000746F74756E652073746172740A004F6670
:10549000660A004661646520486569676874200093
:1054A000426564204C6576656C696E6720004661D4
:1054B000696C656420746F20656E61626C65204262
:1054C0006564204C6576656C696E670A0076616C70
:1054D00069640A53746F7261676520736C6F743A04
:1054E0002000696E004D65736820697320003F5588
:1054F0007365203020746F20003F496E76616C69BF
:10550000642073746F7261676520736C6F742E0A08
:10551000004D65736820706F696E742063616E6EF4
:105520006F74206265207265736F6C7665640A0023
:105530004D34323120696E636F727265637420700E
:105540006172616D657465722075736167650A00CB
:105550004F666673657473206170706C6965640072
:105560004572723A20546F6F206661722100546F49
:105570006F206661722066726F6D2072656665725B
:10558000656E636520706F696E740A00496E73659D
:1055900072742066696C616D656E7420616E642042
:1055A000707265737320627574746F6E0A00507246
:1055B00065737320627574746F6E20746F206865F4
:1055C0006174206E6F7A7A6C650A00496E73657239
:1055D000742066696C616D656E7420616E64207004
:1055E0007265737320627574746F6E20286F7220F9
:1055F0004D313038290A0056652D6A65726B0056A8
:10560000652D6A65726B0056652D6A65726B005672
:105610007A2D6A65726B00567A2D6A65726B005638
:10562000792D6A65726B0056792D6A65726B00562A
:10563000792D6A65726B0056782D6A65726B00561B
:10564000782D6A65726B0056782D6A65726B004D15
:105650006F74696F6E004573746570732F6D6D00A4
:105660004573746570732F6D6D005A737465707334
:105670002F6D6D005A73746570732F6D6D005973C3
:10568000746570732F6D6D005973746570732F6D31
:105690006D005873746570732F6D6D005873746569
:1056A00070732F6D6D004D6F74696F6E005374656C
:1056B00070732F6D6D004A65726B00416363656C9A
:1056C00065726174696F6E0056656C6F6369747999
:1056D0000050726F6265205A204F666673657400D1
:1056E000436F6E74726F6C004C6F6164206D6D005F
:1056F0004C6F6164206D6D004C6F6164206D6D00B6
:10570000556E6C6F6164206D6D00556E6C6F6164D9
:10571000206D6D00556E6C6F6164206D6D00466983
:105720006C2E204469612E0046696C2E204469610C
:105730002E004F6666004F6E20004520696E206D7A
:105740006D33004520696E206D6D330041647661D4
:105750006E6365204B00416476616E6365204B008B
:10576000416476616E6365204B00436F6E74726FA7
:105770006C0043616E6E6F7420656E746572207389
:1057800075626469723A2000022E2E004D61696EC6
:10579000004D37303220542564004D3630302042E1
:1057A0003020542564004D373032203B2564004DB5
:1057B0003730312054256400486F6D6520585920DA
:1057C00066697273740A00486F6D652058592066C7
:1057D00069727374004D3630303A20546F6F206315
:1057E0006F6C6400486F74656E6420746F6F206323
:1057F0006F6C640A0046696C652064656C6574654D
:10580000643A0044656C6574696F6E206661696C0A
:1058100065642C2046696C653A200050726F74658F
:10582000637465642050696E0A0046696C616D6539
:105830006E7420757365643A200053746174733A12
:1058400020002C204C6F6E67657374206A6F623A7B
:105850002000546F74616C2074696D653A200053A8
:10586000746174733A20002C204661696C65643A57
:1058700020002C2046696E69736865643A200050E8
:1058800072696E74733A200053746174733A200025
:1058900020573A004520436F6F6C696E672E2E2E9D
:1058A00000452048656174696E672E2E2E002057D2
:1058B0003A0042656420636F6F6C696E672E2E2E0E
:1058C000004265642068656174696E672E2E2E0043
:1058D000205A3A0020593A0020436F756E742058C0
:1058E0003A0020453A00205A3A0020593A00583AE6
:1058F00000496E73756666696369656E74206461DC
:1059000074610A00646F6E650A0045787472617094
:105910006F6C6174696E67206D6573682E2E2E0042
:10592000627573793A2070617573656420666F7271
:1059300020696E7075740A00627573793A2070611F
:105940007573656420666F7220757365720A0062F4
:105950007573793A2070726F63657373696E670A45
:10596000004B494C4C45442E20004B494C4C206385
:105970006175736564206279204B494C4C206275D7
:1059800074746F6E2F70696E0A004B494C4C45441D
:105990002E20004B494C4C20636175736564206276
:1059A0007920746F6F206D75636820696E61637410
:1059B0006976652074696D65202D20637572726546
:1059C0006E7420636F6D6D616E643A2000506C657B
:1059D000617365207265736574005052494E544579
:1059E000522048414C544544005072696E746572AF
:1059F0002068616C7465642E206B696C6C282920AA
:105A000063616C6C6564210A00656E71756575650E
:105A1000696E672022000000000000000000000006
:105A200000000000484200004842000080400000A2
:105A300000005761726E696E673A20486F6D696E3B
:105A4000672042756D702044697669736F72203CDF
:105A500020310A000202040000A0400000A0400023
:105A6000000040000096430000964300009643FF6C
:105A7000FFFF1FFFFFFFFFFFFF600000000001FFAF
:105A8000400000000000FF8000000000007F83CF86
:105A900000000C303F87FF80000C301F86798000AB
:105AA0000C000F8C30C7838C30E78C30CFC7CC31E3
:105AB000F38C30DCECEC33B98C30D86C6C33198C53
:105AC00030D06C0C33198C30D86C0C33198C30DC22
:105AD0006C0E3B198C30CF7C079F198C30C77C0330
