:100000000C94ED1A0C941E1B0C941E1B0C941E1BBE
:100010000C941E1B0C941E1B0C941E1B0C941E1B7C
:100020000C941E1B0C941E1B0C941E1B0C941E1B6C
:100030000C941E1B0C941E1B0C941E1B0C941E1B5C
:100040000C941E1B0C9447860C941E1B0C941E1BB8
:100050000C941E1B0C941E1B0C949A430C9484C885
:100060000C941E1B0C94E7380C941E1B0C941E1B46
:100070000C941E1B0C941E1B0C941E1B0C941E1B1C
:100080000C949C8E0C941E1B0C941E1B0C941E1B1B
:100090000C941E1B0C941E1B0C941E1B0C941E1BFC
:1000A0000C941E1B0C941E1B0C946E8E0C941E1B29
:1000B0000C941E1B0C941E1B0C941E1B0C94408E47
:1000C0000C941E1B0C941E1B0C941E1B0C941E1BCC
:1000D0000C941E1B0C941E1B0C941E1B0C941E1BBC
:1000E0000C941E1B6C976F975E9762976897A69704
:1000F000739777977D97819785978B978F9793972E
:10010000A69799979D97A197AF98959898989B983F
:100110009E98AA98A198BB98A498A7986A9D6F9D4D
:10012000749D7E9D889D019E929D9A9DA29DAC9DF1
:10013000B69DC09DCF9DD99D019EE39DED9DF79DF0
:10014000FDF675F5AEF539F7AEF5AEF5AEF5AEF5F3
:10015000AEF5AEF5AEF5AEF5AEF5AEF5AEF5AEF587
:10016000AEF5AEF5AEF5AEF5AEF5AEF5AEF5AEF577
:10017000AEF5AEF5AEF5AEF5AEF5AEF533F7AEF5E0
:10018000AEF5AEF5AEF5AEF5AEF5AEF5AEF50CF7F7
:10019000AEF5AEF5AEF5AEF5AEF5AEF5AEF5AEF547
:1001A000AEF5AEF550F7ABF5084AD73B3BCE016E46
:1001B00084BCBFFDC12F3D6C74319ABD56833DDABE
:1001C0003D00C77F11BED9E4BB4C3E916BAAAABECD
:1001D000000000803F05A84CCDB2D44EB93836A9F6
:1001E000020C50B9918688083CA6AAAA2ABE000033
:1001F00000803F000D94FF0F0D9420104E414E499A
:100200004E495459494E46CDCCCC3D0AD7233C17D4
:10021000B7D13877CC2B329595E6241FB14F0A0021
:100220000020410000C84200401C4620BCBE4CCA11
:100230001B0E5AAEC59D74434F4D4D554E4943411B
:1002400054494F4E0044525952554E004552524F58
:10025000525300494E464F004543484F00536C658A
:1002600065702E2E2E00486F6D65205859206669E6
:100270007273740A00486F6D652058592066697260
:10028000737400205A3A200020593A2000426564D5
:1002900020583A20004D65736820706F696E742095
:1002A00063616E6E6F74206265207265736F6C7629
:1002B00065640A00436C69636B20746F2072657318
:1002C000756D652E2E2E004E6F206D6F76652E009B
:1002D000456E642066696C65206C6973740A00421F
:1002E0006567696E2066696C65206C6973740A00C5
:1002F0004D31323500286E6F2066696C65290053D8
:1003000044207072696E74696E672062797465202A
:10031000004E6F74205344207072696E74696E676A
:100320000A0043757272656E742066696C653A20C6
:10033000002569730025696D2025697300256968AA
:100340002025696D20256973002569642025696869
:100350002025696D20256973002569792025696448
:10036000202569682025696D202569730050726910
:100370006E742074696D653A2000580253024C0275
:10038000450237026F66660044454255473A004BC6
:10039000494C4C45442E20004D3131332053006FE1
:1003A0006B0050533A310A0050533A300A005065FE
:1003B0006761737573203132204F66662E002C20E2
:1003C000002C2000544845524D414C5F50524F5430
:1003D000454354494F4E004155544F5245504F529A
:1003E000545F53445F53544154555300454D455257
:1003F00047454E43595F5041525345520043415384
:10040000455F4C494748545F4252494748544E451E
:10041000535300544F47474C455F4C49474854534A
:1004200000534F4654574152455F504F5745520075
:100430004255494C445F50455243454E54004C454B
:1004400056454C494E475F44415441005A5F505213
:100450004F4245004155544F4C4556454C00505273
:10046000494E545F4A4F420050524F4752455353F2
:10047000004155544F5245504F52545F54454D50D2
:1004800000564F4C554D4554524943004545505236
:100490004F4D0053455249414C5F584F4E5F584FA6
:1004A0004646004649524D574152455F4E414D45E3
:1004B0003A4D61726C696E206275676669782D319C
:1004C0002E312E7820284769746875622920534F91
:1004D000555243455F434F44455F55524C3A68740B
:1004E0007470733A2F2F6769746875622E636F6D2D
:1004F0002F4D61726C696E4669726D776172652FFE
:100500004D61726C696E2050524F544F434F4C5F97
:1005100056455253494F4E3A312E30204D414348B3
:10052000494E455F545950453A506567617375733C
:100530002031322045585452554445525F434F555F
:100540004E543A3120555549443A636564653261E9
:1005500032662D343161322D343734382D396231E1
:10056000322D6335356336326633363766660A00B8
:100570002F2F20004D31343520533C696E6465784F
:100580003E206F7574206F662072616E676520284B
:10059000302D31290A002054002052004163636548
:1005A0006C65726174696F6E3A2050005741524E0B
:1005B000494E4721204C6F77205A204A65726B20A4
:1005C0006D6179206C65616420746F20756E776150
:1005D0006E746564207061757365732E0A00204621
:1005E0006C6F773A2000000136372603FFFFFF3596
:1005F0003C3D380EFFFFFF312E303E12FFFFFFFF64
:1006000028FF0C0809FFFFFF1A1C18FFFF2A0844E7
:100610000AFF43206F7574206F662072616E6765F4
:100620000A00536572766F20003A200020536572ED
:10063000766F200050726F6265205A204F66667395
:1006400065743A200043290A0061626C65642028C1
:100650006D696E2074656D702000436F6C64206559
:10066000787472756465732061726520004E6F2026
:1006700063617365206C696768740A004D6573680F
:1006800020706F696E742063616E6E6F7420626596
:10069000207265736F6C7665640A004D34323120C8
:1006A000696E636F727265637420706172616D65EB
:1006B0007465722075736167650A00454550524F35
:1006C0004D204F4B0A003F5A206F7574206F6620F3
:1006D00072616E676520282D323020746F203230B1
:1006E000290A003A200050726F6265205A204F6636
:1006F0006673657400416374697665204578747229
:10070000756465723A2000496E76616C6964206593
:10071000787472756465720A004B494C4C45442EDE
:10072000200053544F505045442E20005072696EA3
:100730007465722073746F707065642064756520D1
:10074000746F206572726F72732E20466978207400
:100750006865206572726F7220616E6420757365C2
:10076000204D39393920746F207265737461727449
:100770002E202854656D70657261747572652069EC
:10078000732072657365742E20536574206974201C
:1007900061667465722072657374617274696E67E4
:1007A000290A004E6F20436865636B73756D20776F
:1007B000697468206C696E65206E756D6265722C57
:1007C000204C617374204C696E653A20004E6F2096
:1007D000436865636B73756D2077697468206C6915
:1007E0006E65206E756D6265722C204C617374208D
:1007F0004C696E653A2000636865636B73756D20A4
:100800006D69736D617463682C204C617374204C46
:10081000696E653A20004C696E65204E756D6265A3
:1008200072206973206E6F74204C617374204C6960
:100830006E65204E756D6265722B312C204C617394
:1008400074204C696E653A20004D313130004D33D3
:10085000310053442072656164206572726F720AC0
:1008600000446F6E65207072696E74696E672066F1
:10087000696C650A0020496E76616C696420657850
:1008800074727564657220000000000000000000B2
:1008900000000000000096430000964300009643CD
:1008A00053544F505045442E20005072696E746569
:1008B000722073746F707065642064756520746F46
:1008C000206572726F72732E204669782074686595
:1008D000206572726F7220616E6420757365204DA1
:1008E00039393920746F20726573746172742E20E7
:1008F0002854656D70657261747572652069732026
:1009000072657365742E2053657420697420616666
:100910007465722072657374617274696E67290AF6
:100920000053544F502063616C6C656420626563B2
:1009300061757365206F6620424C546F7563682043
:100940006572726F72202D207265737461727420EB
:1009500077697468204D3939390A0020204E6F7A42
:100960007A6C653A20006368616E6765006F662087
:100970007468652066696C616D656E7400576169A5
:100980007420666F722073746172740020204E6F41
:100990007A7A6C653A2000200066696C616D656E3C
:1009A0007420756E6C6F6164005761697420666FA6
:1009B000720020204E6F7A7A6C653A200020005039
:1009C0006C6561736520776169742E2E2E00486511
:1009D0006174696E67206E6F7A7A6C650020204EB4
:1009E0006F7A7A6C653A2000200068656174206E29
:1009F0006F7A7A6C652E005072657373206275741D
:100A0000746F6E20746F0020204E6F7A7A6C653A96
:100A10002000746F20636F6E74696E75652E2E2EC4
:100A200000616E6420707265737320627574746FF8
:100A30006E00496E736572742066696C616D656ED7
:100A4000740020204E6F7A7A6C653A200020006690
:100A5000696C616D656E74206C6F616400576169CB
:100A60007420666F720020204E6F7A7A6C653A208F
:100A700000200066696C616D656E74207075726728
:100A800065005761697420666F7200746F2072652B
:100A900073756D65005761697420666F722070729E
:100AA000696E74001000C90210012C01400122017E
:100AB00070011801B0010E01F00104015002FA00AA
:100AC000B002F0003003E600D003DC009004D20056
:100AD0007005C800A006BE000008B400B009AA0056
:100AE000D00BA000600E960060118C0000158200F3
:100AF00020197800C01D6E00A0226400B0275A00A3
:100B0000902C500000314600E0343C001038320098
:100B1000903A2800603C1E00A03D1400803E0A0070
:100B2000203F00006265640A002C207379737465AD
:100B30006D2073746F707065642120486561746501
:100B4000725F49443A2000426564206865617469B7
:100B50006E67206661696C65640048656174696EE2
:100B600067206661696C6564004531204865617481
:100B7000696E67206661696C6564004865617469C7
:100B80006E67206661696C65640070012C019001DC
:100B90002701B0012201C0011D01F001180110025E
:100BA000130130020E016002090190020401C0022B
:100BB000FF000003FA004003F5008003F000D003BB
:100BC000EB002004E6007004E100E004DC004005D6
:100BD000D700C005D2004006CD00D006C80080076F
:100BE000C3003008BE00F008B900C009B400B00A64
:100BF000AF00B00BAA00D00CA500000EA000500F53
:100C00009B00C01096005012910000148C00C0157B
:100C10008700B0178200B0197D00D01B7800001E3D
:100C2000730040206E0090226900F0246400402789
:100C30005F0090295A00E02B5500102E5000203004
:100C40004B0010324600E033410090353C00103735
:100C5000370070383200A0392D00B03A2800A03B90
:100C60002300603C1E00103D1900903D1400103E12
:100C70000F00703E0A00C03E0500003F0000403FEC
:100C8000FBFF803FF6FFC03FF1FF45312045727208
:100C90003A204D415854454D50004572723A204D0E
:100CA000415854454D5020424544004D415854450B
:100CB0004D50207472696767657265640045312024
:100CC0004572723A204D494E54454D50004572725E
:100CD0003A204D494E54454D5020424544004D491F
:100CE0004E54454D502074726967676572656400A3
:100CF0004D383420582059205A204500202F0020FC
:100D000042403A0020403A00436172642072656DAF
:100D10006F766564004361726420696E73657274F6
:100D200065640000060900FE0701920321207FFF91
:100D300007FF07FF0000000600000107070602008A
:100D400080808080800080030202060105A0A0054B
:100D500007070600005050F850F8505005070706E6
:100D600000002078A07028F020050707060000C0CA
:100D7000C810204098180507070600006090A040A2
:100D8000A89068020303060104C040800307070619
:100D9000010020408080804020030707060100807A
:100DA00040202020408005050506000120A870A8ED
:100DB000200505050600012020F820200203030677
:100DC00002FFC04080050101060003F8020202068E
:100DD0000200C0C00505050600010810204080057E
:100DE0000707060000708888888888700307070650
:100DF000010040C040404040E00507070600007089
:100E00008808708080F8050707060000F810201099
:100E10000808F005070706000010305090F8101081
:100E2000050707060000F880F00808887005070726
:100E3000060000708080F0888870050707060000B3
:100E4000F808102020202005070706000070888879
:100E50007088887005070706000070888878080881
:100E600070020505060200C0C000C0C002060606EA
:100E700002FFC0C000C04080040707060000102029
:100E80004080402010050303060002F800F8040724
:100E9000070601008040201020408005070706005B
:100EA00000708808102000200507070600007088E1
:100EB0000868A8A870050707060000708888F888E9
:100EC0008888050707060000F08888F08888F00504
:100ED0000707060000708880808088700507070675
:100EE0000000F08888888888F0050707060000F869
:100EF0008080F08080F8050707060000F88080F009
:100F0000808080050707060000708880B888887098
:100F1000050707060000888888F888888801070781
:100F20000602008080808080808005070706000020
:100F3000381010101090600507070600008890A078
:100F4000C0A0908805070706000080808080808010
:100F5000F805070706000088D8A88888888805074C
:100F6000070600008888C8A8988888050707060033
:100F70000070888888888870050707060000F08858
:100F800088F080808005070706000070888888A8A0
:100F90009068050707060000F08888F0A090880593
:100FA0000707060000788080700808F0050707062C
:100FB0000000F820202020202005070706000088D8
:100FC00088888888887005070706000088888888D0
:100FD0008850200507070600008888888888A85060
:100FE00005070706000088885020508888050707F5
:100FF000060000888888502020200507070600008A
:10100000F80810204080F8030707060100E0808000
:10101000808080E00505050600018040201008035F
:101020000707060100E02020202020E0050303063A
:101030000004205088050101060000F802020206A3
:1010400002058040050505060000700878887805CF
:1010500007070600008080B0C88888F005050506EF
:101060000000708080887005070706000008086887
:10107000988888780505050600007088F880700556
:1010800007070600003048E04040404005060606DD
:1010900000FF7088887808700507070600008080C8
:1010A000B0C8888888010707060200800080808019
:1010B00080800308080601FF200020202020A04097
:1010C000040707060000808090A0C0A090030707D7
:1010D000060100C04040404040E005050506000014
:1010E000D0A8A8A8A8050505060000B0C88888886B
:1010F000050505060000708888887005060606004C
:10110000FFF08888F080800506060600FF78888852
:10111000780808050505060000B0C8808080050530
:101120000506000070807008F00407070600004004
:1011300040E040404030050505060000888888985A
:101140006805050506000088888850200505050605
:1011500000008888A8A850050505060000885020D2
:1011600050880506060600FF8888887808700505FF
:1011700005060000F8102040F803070706010020CC
:1011800040408040402001070706020080808080A8
:101190008080800307070601008040402040408097
:1011A000050202060002689000000006000050726E
:1011B0006F62696E67206661696C65640A005072CF
:1011C0006F62696E67206661696C656400205A3AD7
:1011D000200020593A200042656420583A200048F7
:1011E0006F6D65202573257325732066697273748E
:1011F000002066697273740A005A0059005800484A
:101200006F6D65200053442063617264206F6B0A28
:10121000006F70656E526F6F74206661696C6564F3
:101220000A00766F6C756D652E696E697420666153
:10123000696C65640A00534420696E6974206661B4
:10124000696C0A0057726974696E6720746F206652
:10125000696C653A20006F70656E206661696C6527
:10126000642C2046696C653A20006F70656E2066BC
:1012700061696C65642C2046696C653A200046699A
:101280006C652073656C65637465640A002053693E
:101290007A653A200046696C65206F70656E6564FA
:1012A0003A20002066696C653A2000646F696E67B9
:1012B000006672657368004E6F772000454E4420CB
:1012C000535542524F5554494E450A002220706FE3
:1012D00073002220706172656E743A220053554289
:1012E000524F5554494E452043414C4C2074617235
:1012F0006765743A22004B494C4C45442E200074DB
:101300007279696E6720746F2063616C6C207375ED
:10131000622D67636F64652066696C657320776909
:10132000746820746F6F206D616E79206C657665CE
:101330006C732E204D4158206C6576656C20697366
:101340003A004572726F723A0042696C696E65616B
:1013500072204C6576656C696E6720477269643AE5
:101360000A00486F6D696E67206661696C6564008C
:1013700047322F47332062616420706172616D656E
:10138000746572730A00202844525952554E290040
:10139000473239204175746F20426564204C657670
:1013A000656C696E67003F20284C2C522C462C42FD
:1013B00029206F7574206F6620626F756E64732EBE
:1013C0000A003F2856296572626F7365206C657646
:1013D000656C20697320696D706C61757369626CEE
:1013E000652028302D34292E0A00426164205A20BD
:1013F00076616C75650A004E6F2062696C696E6576
:10140000617220677269640A003A004361703A00B1
:10141000205A00205900580020204D61783A2000C1
:10142000205A00205900580020204D696E3A2000B3
:101430004F6E20004F666600536F667420656E64C1
:1014400073746F70733A200020643A0020693A0088
:1014500020703A00496E76616C6964206578747218
:10146000756465720A0023646566696E652044458B
:101470004641554C545F4B64200023646566696E99
:10148000652044454641554C545F4B692000236418
:101490006566696E652044454641554C545F4B7006
:1014A0002000504944204175746F74756E65206644
:1014B000696E69736865642120507574207468656D
:1014C000206C617374204B702C204B6920616E641A
:1014D000204B6420636F6E7374616E747320667248
:1014E0006F6D2062656C6F7720696E746F20436F3B
:1014F0006E66696775726174696F6E2E680A005056
:101500004944204175746F74756E65206661696C1D
:101510006564212074696D656F75740A004531201A
:10152000544845524D414C2052554E415741590067
:10153000546865726D616C2052756E6177617900D7
:1015400045312048656174696E67206661696C6524
:10155000640048656174696E67206661696C6564E2
:1015600000504944204175746F74756E6520666142
:10157000696C6564212054656D7065726174757263
:101580006520746F6F20686967680A00204B643AB1
:101590002000204B693A2000204B703A20000A209E
:1015A000436C617373696320504944200A002054DE
:1015B000753A2000204B753A2000206D61783A2062
:1015C00000206D696E3A200020643A200020626994
:1015D00061733A2000504944204175746F74756EF0
:1015E00065206661696C65642120426164206578CC
:1015F000747275646572206E756D6265720A005052
:101600004944204175746F74756E652073746172FE
:10161000740A004F66660A00466164652048656981
:101620006768742000426564204C6576656C696E5D
:101630006720004661696C656420746F20656E6187
:10164000626C6520426564204C6576656C696E67E6
:101650000A004F666673657473206170706C69650B
:1016600064004572723A20546F6F206661722100E7
:10167000546F6F206661722066726F6D20726566AE
:101680006572656E636520706F696E740A00496EDD
:10169000736572742066696C616D656E7420616E2D
:1016A0006420707265737320627574746F6E0A00C3
:1016B000507265737320627574746F6E20746F203E
:1016C00068656174206E6F7A7A6C650A00496E7382
:1016D0006572742066696C616D656E7420616E64FC
:1016E00020707265737320627574746F6E20286F3A
:1016F00072204D313038290A004573746570732F9C
:101700006D6D004573746570732F6D6D005A737441
:101710006570732F6D6D005A73746570732F6D6DE6
:10172000005973746570732F6D6D00597374657013
:10173000732F6D6D005873746570732F6D6D005845
:1017400073746570732F6D6D004D6F74696F6E00EB
:1017500053746570732F6D6D004A65726B00416341
:1017600063656C65726174696F6E0056656C6F635A
:101770006974790050726F6265205A204F666673F3
:10178000657400436F6E74726F6C004C6F616420FF
:101790006D6D004C6F6164206D6D004C6F61642055
:1017A0006D6D00556E6C6F6164206D6D00556E6CD3
:1017B0006F6164206D6D00556E6C6F6164206D6D9E
:1017C0000046696C2E204469612E0046696C2E200B
:1017D0004469612E004F6666004F6E200045206907
:1017E0006E206D6D3300436F6E74726F6C004361D9
:1017F0006E6E6F7420656E746572207375626469B5
:10180000723A2000022E2E004D61696E004D373075
:101810003220542564004D3630302042302054258B
:1018200064004D373032203B2564004D3730312085
:10183000542564004368616E67652066696C616D5C
:10184000656E740050726568656174204142530092
:101850005072656865617420504C41004368616E48
:1018600067652066696C616D656E74005052494E03
:10187000542050415553454400554E4C4F4144204F
:1018800046494C414D454E54004C4F414420464939
:101890004C414D454E54005075726765206D6F7216
:1018A0006500436F6E74696E756500524553554D02
:1018B00045204F5054494F4E533A0000060900FE50
:1018C000000000000001090008FE000005080806ED
:1018D000000040F0C88888987810050808060000C5
:1018E000C0F88888888888F805050506000120303A
:1018F000F830200508080600002070F8202020207D
:10190000E00509090600FF2070A8A8B888887020A3
:101910000509090600FFE080C0B0A8283028280586
:1019200009090600FFF8A88888888888A8F8050AA9
:101930000A0600FE205050505088A8A88870030363
:101940000306000340A04025753A25303275002576
:101950003032753A253032750025756420253032D5
:10196000753A2530327500202020202020005A00B2
:10197000590020202020005800092000000000000D
:1019800000000000000000003FFFF0000000000029
:10199000000000000000003800700000000000009F
:1019A00000000000000030FC3000000000000000DB
:1019B000000000000020FC100000000000000000FB
:1019C000000000002078100000000000000000006F
:1019D00000000020301000000000000000000000A7
:1019E00000002C00D03FC00000000000000020825A
:1019F000002E31D07FE00000000000000010410008
:101A00002F7BD07FE0000000000000001041002F7D
:101A10007BD07FE0000000000000002082002E311B
:101A2000D03FC0000000000000004104002C00D0A6
:101A30003FC0000000000000008208002030107F3E
:101A4000E0000000000000008208002078107FE025
:101A50000000000000000041040020FC107FE000B6
:101A600000000000000020820030FC301F800000D9
:101A700000000000000000003800700F00000000AF
:101A800000000000FFFFC03FFFF006000000000064
:101A9000000000FFFFC00000000000000000000088
:101AA00000000000003FFFF0000000000000000008
:101AB000000000003800700000000000000000007E
:101AC000000000318630000000000000000000002F
:101AD000000023871000000000000000000000004C
:101AE00000278790000000000000000000000000B8
:101AF0002F87D00000000000000000000000002F31
:101B000003D03FC000000000000000208200203011
:101B1000107FE0000000000000001041002078105D
:101B20007FE0000000000000001041002078107FDE
:101B3000E0000000000000002082002030103FC0C4
:101B4000000000000000004104002F03D03FC0004F
:101B50000000000000008208002F87D07FE0000016
:101B600000000000008208002787907FE00000004E
:101B7000000000004104002387107FE00000000007
:101B80000000002082003186301F8000000000002D
:101B900000000000003800700F000000000000008E
:101BA00000FFFFC03FFFF006000000000000000043
:101BB000FFFFC000000024F4D43050C38E20C2A226
:101BC0004017828B7011127A910D816CD90AA8612D
:101BD000E108C7586607615143061E4B5D05C145C4
:101BE000A7041A411104093D9803713931034036A5
:101BF000DB0265339102D4305402802E1D02632C27
:101C0000EE01752AC501B028A001102781018F259A
:101C100064012B244B01E0223401AC211F018D20F3
:101C20000D01801FFC00841EED00971DDF00B81C15
:101C3000D200E61BC600201BBC00641AB200B21919
:101C4000A8000A19A0006A189900D117910040173E
:101C50008B00B516840031167E00B31579003A1555
:101C60007300C7146F0058146A00EE1366008813DF
:101C7000630025135E00C7125B006C12570015123B
:101C80005400C111510070114F0021114B00D610AA
:101C900049008D1047004610440002104200C00F5A
:101CA0004000800F3E00420F3C00060F3B00CB0E71
:101CB0003800930E37005C0E3500270E3400F30D0C
:101CC0003200C10D3100900D3000600D2E00320D3C
:101CD0002D00050D2C00D90C2B00AE0C2900850C15
:101CE00029005C0C2700350C27000E0C2600E80BA1
:101CF0002400C40B2400A00B23007D0B23005A0BEF
:101D00002100390B2100180B2000F80A1F00D90A06
:101D10001E00BB0A1E009D0A1D00800A1D00630AEA
:101D20001C00470A1B002C0A1B00110A1A00F709A5
:101D30001A00DD091900C4091900AB09190092093C
:101D400017007B091800630917004C0916003609B3
:101D50001600200916000A091500F5081500E0080C
:101D60001400CC081400B8081400A408140090084B
:101D700013007D0812006B08130058081200460873
:101D80001200340811002308110012081100010884
:101D90001100F0071000E0071000D0071000C00786
:101DA0001000B0070F00A107100091070E00830775
:101DB0000F0074070F0065070E0057070E00490754
:101DC0000E003B070D002E070E0020070D00130725
:101DD0000D0006070D00F9060C00ED060D00E006EB
:101DE0000C00D4060C00C8060C00BC060C00B006A3
:101DF0000C00A4060B0099060C008D060B00820651
:101E00000B0077060B006C060B0061060A005706F4
:101E10000B004C060A0042060A0038060A002E068D
:101E20000A0024060A001A060A001006090007061E
:101E30000A00FD050900F4050900EB050900E205AB
:101E40000900D9050900D0050900C7050900BE052C
:101E50000900B5050800AD050800A50509009C05A9
:101E60000800940508008C050800840508007C051E
:101E70000800740508006C050700650508005D058D
:101E80000700560508004E050700470507004005F6
:101E9000080038050700310507002A05070023055B
:101EA00007001C050600160507000F0507000805BA
:101EB000060002050700FB040600F5040700EE0417
:101EC0000600E8040600E2040700DB040600D5046F
:101ED0000600CF040600C9040600C3040600BD04C2
:101EE0000600B7040600B1040500AC040600A60411
:101EF0000600A00405009B0406009504050090045C
:101F000006008A04050085040500800406007A04A2
:101F1000050075040500700405006B0405006604E7
:101F20000500610405005C04050057040500520427
:101F300005004D04050048040500430405003E0467
:101F400004003A04050035040500300404002C04A4
:101F5000050027040400230405001E0404001A04DD
:101F6000040016040500110404000D040400090413
:101F700005000404040000040400FC030400F8034A
:101F80000400F4030400F0030400EC030400E8037D
:101F90000400E4030400E0030400DC030400D803AD
:101FA0000400D4030400D0030400CC030400C803DD
:101FB0000300C503030024F404D9201BC40C5C0EE9
:101FC0009804C4095F0265077101F405F900FB0478
:101FD000B30048048700C103690058035500030398
:101FE0004500BE023A008402310053022A00290251
:101FF000250004022000E4011C00C8011900AF0103
:102000001700980114008401130071011000610190
:10201000100051010E0043010D0036010B002B0191
:102020000B0020010B00150109000C010900030140
:102030000800FB000800F3000800EB000700E400C4
:102040000600DE000600D8000600D2000600CC0024
:102050000500C7000500C2000500BD000400B9006E
:102060000400B5000400B1000400AD000400A900A4
:102070000400A5000300A20003009F0004009B00D1
:1020800003009800030095000200930003009000F5
:1020900003008D0002008B00030088000200860010
:1020A000020084000300810002007F0002007D0026
:1020B00002007B0002007900020077000100760038
:1020C00002007400020072000100710002006F0043
:1020D00002006D0001006C0002006A00010069004E
:1020E0000200670001006600010065000100640055
:1020F00002006200010061000100600001005F0059
:1021000002005D0001005C0001005B0001005A005C
:10211000010059000100580001005700010056005D
:10212000010055000100540001005300000053005D
:1021300001005200010051000100500001004F0059
:1021400001004E0000004E0001004D0001004C0057
:1021500001004B0000004B0001004A000100490053
:10216000010048000000480001004700010046004F
:102170000000460001004500000045000100440049
:102180000100430000004300010042000000420043
:1021900001004100000041000100400001003F003B
:1021A00000003F0001003E0000003E0001003D0035
:1021B00000003D0001003C0000003C0000003C002D
:1021C00001003B0000003B0001003A0000003A0023
:1021D000010039000000390001003800000038001B
:1021E0000000380001003700000037000100360011
:1021F0000000360000003600010035000000350008
:1022000000003500010034000000340000003400FC
:1022100001003300000033000000330001003200F1
:1022200000003200000032000100310000003100E7
:1022300000003100010030000000300000003000DC
:1022400001002F0000002F0000002F0000002F00D1
:1022500001002E0000002E0000002E0001002D00C5
:1022600000002D0000002D0000002D0001002C00BA
:1022700000002C0000002C0000002C0001002B00AE
:1022800000002B0000002B0000002B0001002A00A2
:1022900000002A0000002A0000002A000100290096
:1022A000000029000000290000002900000029008A
:1022B000010028000000280000002800000028007D
:1022C0000000280001002700000027000000270070
:1022D0000000270000002700010026000000260063
:1022E0000000260000002600000026000100250056
:1022F000000025000000250000002500000025004A
:10230000000025000100240000002400000024003B
:10231000000024000000240001002300000023002E
:102320000000230000002300000023000000230021
:102330000000230001002200000022000000220013
:102340000000220000002200000022000100210005
:1023500000002100000021000000210000002100F9
:1023600000002100000021000100200000002000EA
:1023700000002000000020000000200000002000DD
:10238000000020000000200001001F0000001F00CE
:1023900000001F0000001F0000001F0000001F00C1
:1023A00000001F0001001E0000001E0000001E00B3
:1023B00000001E000000043700001E290000511B11
:1023C00000005810000010090000CC040000780242
:1023D0000000410100005065676173757320313260
:1023E0002052656164792E005072696E74696E675F
:1023F0002E2E2E005072696E7420706175736564A4
:102400000053746F7720424C546F756368004D32EF
:10241000383020503020533930004465706C6F796B
:1024200020424C546F756368004D32383020503074
:102430002053313000424C546F7563682053656CF3
:10244000662D54657374004D32383020503020535F
:1024500031323000526573657420424C546F75639D
:1024600068004D3238302050302053313630004D26
:1024700061696E004D313235004D32340050726961
:102480006E742061626F72746564005072696E745C
:102490002066726F6D2053440053746F7020707209
:1024A000696E7400526573756D65207072696E7423
:1024B000004E6F2053442063617264005061757355
:1024C00065207072696E7400436F6E74726F6C0079
:1024D000507265706172650054756E6500496E6674
:1024E0006F2073637265656E0050726F6265205A6B
:1024F000204F6666736574004368616E6765206689
:10250000696C616D656E74004368616E6765206615
:10251000696C616D656E74004D363030204230005C
:1025200050726F6265205A204F666673657400466C
:102530006C6F7700466C6F7700466C6F7700466172
:102540006E2073706565640046616E20737065650A
:10255000640046616E2073706565640042656400C6
:1025600042656400426564004E6F7A7A6C65004E85
:102570006F7A7A6C65004E6F7A7A6C65004661649A
:102580006520486569676874004661646520486530
:1025900069676874004661646520486569676874A6
:1025A0000053706565640053706565640053706521
:1025B0006564004D61696E005072656865617420E4
:1025C000504C4120456E640050726568656174200E
:1025D000504C41204265640050726568656174200A
:1025E000504C4100507265706172650050726568B0
:1025F0006561742041425320456E640050726568E5
:1026000065617420414253204265640050726568E0
:1026100065617420414253005072657061726500BB
:1026200000002100240027002A002D003000330084
:1026300001010000040107010A0100002200250039
:1026400028002B002E00310034000201000005019B
:1026500008010B01000020002300260029002C00A7
:102660002F003200000100000301060109010505E9
:102670000505070508080808020202020A0A0808F8
:102680000404040401010101010101010303030326
:1026900003030303040707070C0C0C0C0C0C0C0CB5
:1026A0000202020206060606060606060B0B0B0BC6
:1026B0000B0B0B0B010210202008081020401020EB
:1026C00040800201020108040201010204081020F6
:1026D00040808040201008040201800402018040F4
:1026E000201008040201080402010102040810205D
:1026F0004080010204081020408000000A0B0209FB
:102700000C0D0E080703040100000000000000008B
:1027100000000000000000000000000000000000B9
:102720000000000000001211100000000000000076
:102730000000000000000000000000000000000099
:102740004D3234004D323320257300556E6B6E6F61
:10275000776E20636F6D6D616E643A202200496E62
:10276000736572742066696C616D656E7420616E4C
:102770006420707265737320627574746F6E2028A4
:102780006F72204D313038290A00486F74656E64CD
:1027900020746F6F20636F6C640A0020746F6F2069
:1027A0006C6F6E6720657874727573696F6E2070D8
:1027B000726576656E7465640A0020636F6C6420D0
:1027C000657874727573696F6E2070726576656E68
:1027D0007465640A0053746F72652073657474695C
:1027E0006E6773004C6F61642073657474696E6703
:1027F000730050726F6265205A204F66667365746D
:1028000000466164652048656967687400466164D4
:10281000652048656967687400466164652048659D
:1028200069676874004F6666004F6E2000426564F9
:10283000204C6576656C696E67004C6576656C202A
:10284000626564004732380A47323900473239003E
:102850004175746F20686F6D6500473238005072A3
:102860006570617265004D343238004D3830005368
:10287000776974636820706F776572206F66660091
:102880004D383100526573657420424C546F756346
:1028900068004D32383020503020533136300042FD
:1028A0004C546F7563682053656C662D5465737462
:1028B000004D3238302050302053313230005072C9
:1028C00065686561742041425300507265686561B6
:1028D0007420504C4100436F6F6C646F776E0053EF
:1028E000776974636820706F776572206F6E00433C
:1028F00068616E67652066696C616D656E74004322
:1029000068616E67652066696C616D656E74004D07
:102910003630302042300044697361626C65207348
:1029200074657070657273004D383400536574209F
:10293000686F6D65206F66667365747300426564C9
:10294000204C6576656C696E67004175746F206810
:102950006F6D6500473238004D6F7665206178698C
:1029600073004D61696E004D6F76652058004D6FA4
:1029700076652059004D6F7665205A00457874724F
:1029800075646572004D6F766520302E316D6D0077
:102990004D6F766520316D6D004D6F76652031305D
:1029A0006D6D004D6F7665206178697300457874B0
:1029B0007275646572004D6F7665205A004D6F76B2
:1029C000652059004D6F7665205800457874727502
:1029D000646572004D6F7665205A004D6F766520F4
:1029E00059004D6F766520580050726570617265B0
:1029F00000496E697469616C697A65204545505279
:102A00004F4D00436F6E74726F6C00526573746F3C
:102A10007265206661696C73616665004C6F616404
:102A20002073657474696E677300496E69746961B7
:102A30006C697A6520454550524F4D0053746F7252
:102A4000652073657474696E677300424C546F75CA
:102A500063680046696C616D656E74004D6F7469E2
:102A60006F6E0054656D7065726174757265004DAE
:102A700061696E005072656865617420414253203F
:102A8000636F6E66005072656865617420504C41DA
:102A900020636F6E66005049442D44005049442D18
:102AA00044005049442D49005049442D49005049A3
:102AB000442D50005049442D5000200820466163A9
:102AC000740020082046616374002008204D61785E
:102AD000002008204D6178002008204D61780020FA
:102AE00008204D696E002008204D696E00200820E6
:102AF0004D696E004F6666004F6E20004175746F21
:102B000074656D700046616E207370656564004683
:102B1000616E2073706565640046616E2073706538
:102B20006564004265640042656400426564004E6D
:102B30006F7A7A6C65004E6F7A7A6C65004E6F7AA8
:102B40007A6C6500436F6E74726F6C0053746F72B1
:102B5000652073657474696E677300426564004232
:102B6000656400426564004E6F7A7A6C65004E6F52
:102B70007A7A6C65004E6F7A7A6C650046616E20D9
:102B800073706565640046616E20737065656400EE
:102B900046616E2073706565640054656D70657282
:102BA000617475726500454550524F4D20646174E3
:102BB0006173697A65206572726F722E0A00290A44
:102BC000002062797465733B206372632000536553
:102BD0007474696E67732053746F72656420280083
:102BE000290A002062797465733B206372632000B8
:102BF0002073746F7265642073657474696E677393
:102C000020726574726965766564202800202863E7
:102C1000616C63756C6174656429210A0020213D33
:102C20002000454550524F4D20435243206D69735B
:102C30006D61746368202D202873746F7265642938
:102C400020002053697A653A2000496E6465783A1D
:102C50002000204D61726C696E3D563535290A00A1
:102C600028454550524F4D3D00454550524F4D204F
:102C700076657273696F6E206D69736D61746368D8
:102C800020001FFFFFFFFFFFFF600000000001FFAB
:102C9000400000000000FF8000000000007F83CFA4
:102CA00000000C303F87FF80000C301F86798000C9
:102CB0000C000F8C30C7838C30E78C30CFC7CC3101
:102CC000F38C30DCECEC33B98C30D86C6C33198C71
:102CD00030D06C0C33198C30D86C0C33198C30DC40
:102CE0006C0E3B198C30CF7C079F198C30C77C034E
:102CF0008F19400000000000026000000000000684
:102D00001FFFFFFFFFFFF82020506C616E6E6572A1
:102D100042756666657242797465733A2000204692
:102D2000726565204D656D6F72793A2000436F6D55
:102D300070696C65643A20536570203139203230F7
:102D400031380A00207C20417574686F723A20285F
:102D5000526965646573656C2C2050656761737595
:102D600073203132290A00323031382D30372D337B
:102D70003100204C61737420557064617465643A4D
:102D800020006275676669782D312E312E780A0031
:102D90004D61726C696E0020536F66747761726565
:102DA0002052657365740A00205761746368646F0C
:102DB000672052657365740A002042726F776E2037
:102DC0006F75742052657365740A002045787465C8
:102DD000726E616C2052657365740A00506F77657E
:102DE0007255700A0073746172740A006175746FB1
:102DF00025692E67006572726F7220777269746937
:102E00006E6720746F2066696C650A00456E647396
:102E1000746F70732025632025632025632025634C
:102E200000205A3A0020593A0020583A00656E6452
:102E300073746F7073206869743A2000446F6E6514
:102E400020736176696E672066696C652E0A004D95
:102E500032390020746F6F206C6F6E672065787454
:102E6000727573696F6E2070726576656E746564D5
:102E70000A0020636F6C6420657874727573696FE3
:102E80006E2070726576656E7465640A0062757393
:102E9000793A2070617573656420666F7220696E7F
:102EA0007075740A00627573793A20706175736584
:102EB0006420666F7220757365720A00627573799B
:102EC0003A2070726F63657373696E670A004B49CD
:102ED0004C4C45442E20004B494C4C20636175738B
:102EE0006564206279204B494C4C20627574746F84
:102EF0006E2F70696E0A004B494C4C45442E2000E1
:102F00004B494C4C20636175736564206279207471
:102F10006F6F206D75636820696E61637469766593
:102F20002074696D65202D2063757272656E742042
:102F3000636F6D6D616E643A2000506C65617365FE
:102F4000207265736574005052494E5445522048B2
:102F5000414C544544005072696E7465722068613A
:102F60006C7465642E206B696C6C28292063616C1D
:102F70006C6564210A00656E7175657565696E67BB
:102F800020220000000000000000000000000000FF
:102F90000048420000484200008040000000005706
:102FA00061726E696E673A20486F6D696E67204284
:102FB000756D702044697669736F72203C20310A08
:102FC000000202040000A0400000A04000000040F9
:102FD000000096430000964300009643FFFFFF7CED
:102FE0003C3E5E2B3D3F2F5B5D3B2C2A225C006FFD
:102FF00070656E206661696C65642C2046696C653D
:103000003A200043616E6E6F74206F70656E20739E
:10301000756264697220006563686F3A004531200B
:10302000544845524D414C2052554E41574159004C
:1030300042454420544845524D414C2052554E4142
:1030400057415900546865726D616C2052756E610C
:10305000776179005654726176206D696E0056541E
:10306000726176206D696E005654726176206D69CA
:103070006E00566D696E00566D696E00566D696E14
:1030800000566D6178204500566D617820450056E8
:103090006D6178204500566D6178205A00566D614B
:1030A00078205A00566D6178205A00566D6178205C
:1030B0005900566D6178205900566D61782059008D
:1030C000566D6178205800566D6178205800566D15
:1030D00061782058004D6F74696F6E00416D6178A2
:1030E000204500416D6178204500416D6178205A8E
:1030F00000416D6178205A00416D6178205900418E
:103100006D6178205900416D6178205800416D61F2
:1031100078205800412D74726176656C00412D74E1
:10312000726176656C00412D726574726163740022
:10313000412D7265747261637400416363656C0054
:10314000416363656C004D6F74696F6E0056652D49
:103150006A65726B0056652D6A65726B0056652D47
:103160006A65726B00567A2D6A65726B00567A2D0D
:103170006A65726B0056792D6A65726B0056792DFF
:103180006A65726B0056792D6A65726B0056782DF0
:103190006A65726B0056782D6A65726B0056782DE1
:1031A0006A65726B004D6F74696F6E00486172647E
:1031B000636F6465642044656661756C7420536553
:1031C0007474696E6773204C6F616465640A00B83B
:1031D0000B0000B80B000005000000B80B00000059
:1031E00000FA430000FA43000080400000484248D3
:1031F00061A0424861A042000048440000D4423A25
:103200000A0020286D6D290020204D363033200023
:103210002055004C0046696C616D656E74206C6FC2
:1032200061642F756E6C6F6164206C656E67746885
:10323000733A0A0020204D383531205A005A2D505B
:10324000726F6265204F66667365740020440020CB
:10325000490020204D333031205000504944207324
:10326000657474696E67733A0A0020460020420054
:1032700020480020204D3134352053004D617465C5
:103280007269616C2068656174757020706172612B
:103290006D65746572733A0A00205A00204A002056
:1032A000204732392057204900205A0020204D3431
:1032B00032302053004175746F20426564204C65A4
:1032C00076656C696E673A0A00205A002059002022
:1032D000204D323036205800486F6D65206F66668D
:1032E0007365743A0A00204500205A0020590020D6
:1032F000580020540020530020204D3230352051FA
:103300000020453C6D61785F655F6A65726B3E00C9
:1033100020583C6D61785F785F6A65726B3E20591A
:103320003C6D61785F795F6A65726B3E205A3C6DD7
:1033300061785F7A5F6A65726B3E00416476616EA8
:103340006365643A20513C6D696E5F7365676D65B6
:103350006E745F74696D655F75733E20533C6D6973
:103360006E5F66656564726174653E20543C6D698C
:103370006E5F74726176656C5F66656564726174B8
:10338000653E0020540020520020204D3230342071
:103390005000416363656C65726174696F6E2028CB
:1033A000756E6974732F7332293A20503C707269BC
:1033B0006E745F616363656C3E20523C726574722B
:1033C0006163745F616363656C3E20543C74726139
:1033D00076656C5F616363656C3E0A002045002082
:1033E0005A0020590020204D3230312058004D61C4
:1033F00078696D756D20416363656C657261746990
:103400006F6E2028756E6974732F7332293A0A0023
:10341000204500205A0020590020204D3230332012
:1034200058004D6178696D756D20666565647261DF
:103430007465732028756E6974732F73293A0A00B6
:10344000204500205A0020590020204D39322058B4
:103450000053746570732070657220756E69743ADC
:103460000A0020204D3230302044300A0020204D08
:103470003230302044002044697361626C65640A14
:103480000046696C616D656E742073657474696E55
:1034900067733A0020204D3134392043203B2055BA
:1034A0006E69747320696E2043656C736975730A65
:1034B000002020473231202020203B004D36303084
:1034C0003A20546F6F20636F6C6400486F74656EB0
:1034D0006420746F6F20636F6C640A0046696C65CA
:1034E0002064656C657465643A0044656C65746954
:1034F0006F6E206661696C65642C2046696C653A64
:10350000200050726F7465637465642050696E0AA0
:103510000020573A004520436F6F6C696E672E2E6E
:103520002E00452048656174696E672E2E2E00209E
:10353000573A0042656420636F6F6C696E672E2E88
:103540002E004265642068656174696E672E2E2EB8
:1035500000205A3A0020593A0020436F756E7420BB
:10356000583A0020453A00205A3A0020593A00586B
:103570003A004572726F722077726974696E6720C3
:10358000746F20454550524F4D210A00545249470F
:103590004745524544006F70656E003A20007A5FDF
:1035A0006D696E00795F6D696E00785F6D696E00A0
:1035B0005265706F7274696E6720656E6473746FA4
:1035C00070207374617475730A00526573656E645C
:1035D0003A20006F6B00FC00FA0011241FBECFEFF1
:1035E000D1E2DEBFCDBF00E00CBF13E0A0E0B2E04F
:1035F000E2E5FAE302E00BBF02C007900D92A637A6
:10360000B107D9F724E1A6E7B3E001C01D92AB3DB5
:10361000B207E1F71AE1CCEEDAE100E006C021974B
:103620000109802FFE010F94861CCB3ED10780E05C
:103630000807A9F70F94040B0D94181D0C940000B3
:103640002F923F924F925F926F927F928F929F92B2
:10365000AF92BF92CF92DF92EF92FF920F931F93A0
:10366000CF93DF93CDB7DEB7A9970FB6F894DEBF3F
:103670000FBECDBF91E090937E0C809126148D34C7
:1036800009F4F7C2843511F40C94062D873411F037
:103690000C944A2D20912414309125142C3131059D
:1036A00009F4AFC08CF42430310534F422303105F4
:1036B00084F537FF27C0D9C22430310599F12B3169
:1036C000310509F46EC0D1C22A32310509F48DC129
:1036D0004CF42D31310509F4B0C02E31310509F417
:1036E000B0C0C3C22B35310509F43DC22C353105BC
:1036F00009F43DC22A35310509F0B7C210927A03A8
:103700000C944C2D8091000281110C94512D0C943D
:103710004C2D81E02230310509F080E00E948E5D61
:103720000C944C2D80E50E944134882329F00E949E
:1037300085336B017C0103C0C12CD12C760183E55C
:103740000E944134882361F00E94C53320E030E0BC
:103750004AE754E40F94A4150F94D41A6B017C012A
:103760000E94C3FE8091F10F811105C060E08DE5DC
:1037700092E00E94A1500E9478C8C60ED71EE81E93
:10378000F91E0E9478C8DC01CB018C199D09AE0995
:10379000BF09B7FD02C00C944C2D80E00E9410CCF4
:1037A000F0CF0E94075A81110C944C2D80E090E0DC
:1037B000A0E2B1E489839A83AB83BC8380E090E08C
:1037C000A1E9B3E48D839E83AF83B88780E090E066
:1037D000A0EAB1E489879A87AB87BC8780E50E941D
:1037E0004134882319F00E94953301C060E068A33A
:1037F000BE016F5F7F4FCE0180960F94D9010C946C
:103800004C2D809164048770873011F00C94562DF4
:103810008FE40E944134882341F00E94B63388230C
:1038200011F40C94562D0C944C2D8FE40E94F83317
:1038300081110C944C2D0C94562D0E9417650C94FC
:103840004C2DC0907504D0907604E0907704F090F1
:10385000780488E50E944134811109C020E030E0FD
:1038600044E052E4C701B6010F948A1902C00E94D5
:10387000C53368A379A38AA39BA3C0907904D09091
:103880007A04E0907B04F0907C0489E50E94413446
:10389000811108C020E030E0A901C701B6010F94F2
:1038A0008B1902C00E94C5339B01AC0169837A83E6
:1038B0008B839C8368A179A18AA19BA10E9412CBD2
:1038C000882311F40C944C2D80E00E9434330E9424
:1038D0004F3085E40E944134882321F00E94B633A2
:1038E000182F04C085E40E94F83311E086E50E9499
:1038F0004134882321F00E949533262F01C021E016
:10390000412FBE016F5F7F4FCE0180960E94B05A5B
:103910006B017C019B01AC010F94371C81115FC0CE
:1039200088A099A0AAA0BBA020E030E0A901C50111
:10393000B4010F943F1587FF05C027E137EB41E540
:1039400058EB04C027E137EB41E558E3C501B4016A
:103950000F948B19AB01BC018DE892E00E94E78EB9
:1039600089809A80AB80BC8020E030E0A901C5014D
:10397000B4010F943F1587FF05C027E137EB41E500
:1039800058EB04C027E137EB41E558E3C501B4012A
:103990000F948B19AB01BC0188E892E00E94E78E7E
:1039A00020E030E0A901C701B6010F943F1587FF61
:1039B00005C027E137EB41E558EB04C027E137EBC1
:1039C00041E558E3C701B6010F948B19AB01BC0167
:1039D00083E892E00E94E78E8AE00E9467340E94AA
:1039E00036300E948BED0C944C2D80910002882380
:1039F00011F40C944C2D89E40E944134182F882333
:103A000021F00E949533E62E01C0E12C8AE40E9449
:103A10004134F82E882321F00E949533062F01C0EF
:103A200000E0112319F022E02E1520F0FF2081F094
:103A3000033070F0E5E9F2E084918F010F5F1F4FD2
:103A4000882311F40C944C2D0E946734F801F4CFB4
:103A50000E9453341123F1F02091C90D3091CA0D09
:103A60004E2D4203B001439F700D11248091050E2D
:103A70009091060E680F791F072E000C880B990B8A
:103A80000F94451560937F0C7093800C8093810C8C
:103A90009093820CFF20E9F02091CB0D3091CC0D5A
:103AA0000203B001039F700D11248091070E9091C5
:103AB000080E680F791F072E000C880B990B0F94C6
:103AC00045156093830C7093840C8093850C9093C0
:103AD000860C80E50E9441348823E9F00E94B633C9
:103AE0008823E9F01123D9F020E030E044E052E4EB
:103AF00060917F0C7091800C8091810C9091820C70
:103B00000F948B1960937F0C7093800C8093810CC1
:103B10009093820C04C080E50E94F833E1CF86E4E4
:103B20000E9441348823D9F00E94C5336B017C0187
:103B300020E030E0A9010F94B11B181684F420E0B6
:103B400030E040E752E4C701B6010F94671A609372
:103B50000A0270930B0280930C0290930D020E9454
:103B600009CF0C944C2D90937A030C944C2D36E68F
:103B7000232E32E0332E4CECE42E4FE0F42E85E77A
:103B800094E099A788A755E6C52E54E0D52E00E00D
:103B900010E0F10181911F010E944134882309F452
:103BA0004AC00E94C5332B013C01133049F0F60195
:103BB00020813181428153810F948A192B013C016C
:103BC000E8A5F9A52081318142815381C301B20169
:103BD0000F948A194B015C012DEB37E346E855EB56
:103BE0000F94B11B87FD0AC02DEB37E346E855E380
:103BF000C501B4010F943F151816ECF4133051F4BD
:103C000040928104509282046092830470928404F2
:103C100001E011C0A5019401F701608171818281E9
:103C200093810F948B19F70160837183828393834F
:103C3000812F0E943A321F5FF4E0EF0EF11C28A59D
:103C400039A52C5F3F4F39A728A734E0C30ED11CFC
:103C5000143009F09ECF002321F081E894E00E9407
:103C600020590E948BED0C944C2D0E94C49A0C9408
:103C70004C2D80912414909125148737910511F4CF
:103C80000C9422270CF0D9C08D34910509F4F3C4AB
:103C90000CF058C08931910509F4F1C21CF584314A
:103CA000910509F4DAC17CF48131910509F450C21F
:103CB0002CF4029708F4D4C10C94032D429709F414
:103CC00007C70C94032D8631910509F492C20CF4B8
:103CD0008CC28731910509F492C2489709F4A5C2B4
:103CE0000C94032D8E31910509F487C384F48B3134
:103CF000910509F4E0C20CF4D0C28C31910509F4AD
:103D000072C34D9711F40C944C2D0C94032D8A32F0
:103D1000910509F478C44CF48F31910509F4BDC3C1
:103D2000809709F46EC30C94032D8B34910509F42C
:103D30009EC48C34910511F00C94032D0E948D4586
:103D40000C944C2D8B36910509F4E5C50CF040C060
:103D50008435910509F4BCC6CCF48135910509F48C
:103D60009CC634F48035910509F46EC60C94032D7D
:103D70008235910509F4A9C68335910511F00C949B
:103D8000032D81E0809379030C944C2D88369105A6
:103D900009F475C49CF48535910509F4CCC68C35BD
:103DA000910511F00C94032D16E6C12E12E0D12ED0
:103DB00007E9E02E04E0F02E10E0D6C68936910522
:103DC00009F423C58A36910509F487C50C94032D9F
:103DD0008037910509F4E8C484F48D36910509F41F
:103DE00056C50CF4DDC48E36910509F473C48F36C4
:103DF000910509F482C40C94032D8337910509F4CD
:103E000029C154F48137910509F4D2C48237910550
:103E100009F429C70C94032D8537910509F4BDC712
:103E20008637910511F00C94032D00912214109106
:103E3000231483E0D12C40E0C5C78D3241E09407C4
:103E400011F40C94C42A0CF079C08B3C910511F448
:103E50000C941028BCF58139910511F40C9430278D
:103E600084F48937910509F4F6C70CF4EEC78D3751
:103E7000910509F462C58C38910509F40CC50C94C0
:103E8000032D8E3B910509F424C534F48B3991053B
:103E900009F4D6C40C94032D883C910511F40C94BC
:103EA000A827893C910511F00C94032D76E6E72EA6
:103EB00072E0F72E05EA13E1E5EBCE2EE3E1DE2E0C
:103EC0000C94F8278C3D910511F40C944129B4F41D
:103ED0008D3C910511F40C94A02814F40C942B281B
:103EE0008E3C910511F40C941F29833D910511F02E
:103EF0000C94032D0E9418740C944C2D8831F1E021
:103F00009F0711F40C94E52964F48D3D910511F49B
:103F10000C944E29823E910511F40C94BC290C940A
:103F2000032D823231E0930711F40C94902A8C32E5
:103F3000914011F40C949B2A0C94032D843FE1E0F2
:103F40009E0711F40C94D32B0CF043C0813921E06F
:103F5000920711F40C94342BBCF48F3241E0940797
:103F600011F40C941B2B14F40C94C72A8336F1E043
:103F70009F0709F46BC08039914011F00C94032D18
:103F80000E94C3FE0C944C2D843A31E0930711F447
:103F90000C943E2B7CF48239E1E09E0711F40C94E2
:103FA000392B8A39914011F00C94032D0E940A6F2D
:103FB0000C944C2D853A21E0920711F40C94412B7E
:103FC0008C3A914011F00C94032D0E943F6C0C949C
:103FD0004C2D883542E0940711F40C940B2CB4F46A
:103FE000863FF1E09F0711F40C94D92B14F40C9444
:103FF000D62B873F31E0930711F40C94DC2B883FDC
:10400000914011F40C94E72B0C94032D8B38E3E0D2
:104010009E0711F40C944C2D6CF48B3522E0920722
:1040200011F40C940E2C8335934011F40C94932CC2
:104030000C94032D803A43E0940709F421C2873E93
:10404000934011F40C94F12C0C94032DE2E4F3E171
:104050000C94212BE3EAF4E045C6EFEDF2E087C0D3
:10406000A0902214B090231480E50E94413488234C
:1040700059F00E9485336B017C0111E0672B682B9E
:10408000692B31F410E004C010E0C12CD12C760172
:1040900083E50E944134882311F40C942B2E0E9456
:1040A000C53320E030E04AE754E40F94A4150F94A0
:1040B000D41A6B017C0111110BC0672B682B692B83
:1040C00039F4A114B10421F0F5018081811102C0FD
:1040D00010E001C011E00E94C3FE112329F061E04D
:1040E000C5010E94DB5005C060E084EB92E00E94B5
:1040F000A15083E080937E0C81E080937D0CC114FD
:10410000D104E104F104B1F00E9478C8C60ED71EB4
:10411000E81EF91E0E9478C8DC01CB018C199D09AC
:10412000AE09BF09B7FF0EC080917D0C81110C94C0
:10413000302E08C080917D0C882321F080E00E9401
:1041400010CCF8CF0E94B19210927D0C0C944C2DA3
:1041500060E087EC92E00E94A1505F988A9880917D
:10416000080181708093060112980C944C2D849163
:104170008F010F5F1F4F882321F00E946734F801E1
:10418000F6CF10927E1381E391E10E945FD58BE11F
:10419000E1E3F1E1DE01159601900D928A95E1F7D8
:1041A00080912F11909130119C838B838CE193E04F
:1041B0009A83898340E050E0BE016F5F7F4F80E0CB
:1041C00090E00E9460DDCE0101960E948BCBE0ED75
:1041D000F2E084918F010F5F1F4F882311F40C943C
:1041E0004C2D0E946734F801F4CF0E94AA570C941A
:1041F0004C2D10920111109202110C944C2DE09153
:104200002214F09123148081882329F0803209F44C
:1042100010823196F8CF40E061E0809122149091B5
:1042200023140E94C7550C944C2D80E090E0A8E424
:10423000B2E489839A83AB83BC8318A219A21AA221
:104240001BA21CA21DA21EA21FA28091EE0F8823FA
:1042500059F020E0AE014F5F5F4FBE01605E7F4FBF
:10426000CE0184960E943C9980910211882319F016
:1042700081E0809301110E946B450C944C2D1092AB
:1042800001110E948D4580EF92E09093710C809314
:10429000700C0E948E320C944C2D80910211882358
:1042A00011F40C944C2D83E50E94413481110C943F
:1042B000352E0C944C2D83E40E94F833882309F4A6
:1042C00050C0E2E2F3E084918F010F5F1F4F88231B
:1042D00021F00E946734F801F6CF8091CC12811151
:1042E00003C0E5EFF2E012C0BE016F5F7F4F89ECC3
:1042F00092E10E9427D48E010F5F1F4FF801819138
:104300008F01882349F10E946734F8CF84918F018F
:104310000F5F1F4F882301F10E946734F801F6CF29
:104320009AE7C92E93E0D92EE12CF12C20E0809160
:10433000A70C90E00E2C02C0959587950A94E2F7A1
:1043400080FD0BC28FEFE81AF80A92E0C90ED11C6B
:10435000E5E0EE16F10459F78AE00E9467340C9408
:104360004C2D80910211882339F08091011188230E
:1043700019F0EFEFF2E003C0E1E1F3E028C084912F
:104380008F010F5F1F4F882321F00E946734F801CF
:10439000F6CF60917A1370917B1380917C1390918A
:1043A0007D134AE00E94B5378FE20E946734609126
:1043B00076137091771380917813909179134AE076
:1043C0000E94B5378AE00E9467340C944C2D84918A
:1043D0008F010F5F1F4F882311F40C944C2D0E9406
:1043E0006734F801F4CF40E060E0809122149091AE
:1043F00023140E94C7550C944C2D0E9464F40C9415
:104400004C2D8091011181110E94C3FE80910211F7
:10441000882311F40C944C2D80E50E9441348823AC
:1044200019F00E94B63303C080E50E94F833182FBC
:10443000482F61E080912214909123140E94C75567
:1044400083E50E944134882381F00E949533AB01BB
:10445000BC0140937A1350937B1360937C13709349
:104460007D1389EC92E10E9418D380910211882378
:1044700019F081E08093011111110C944C2DFBCEA9
:10448000809122149091231421E02093001140E0A8
:1044900060E00E94C7550C944C2D0E941C457B0186
:1044A0008C0120E831E541E050E00F942D19C9015D
:1044B0006DE671E00F945F1C4B015C01C801B70110
:1044C00020E13EE040E050E00F942D19CA01B9010F
:1044D00028E130E040E050E00F942D19762E672E51
:1044E000C62ED72E2CE3222E312C412C512CC80164
:1044F000B701A20191010F942D19F62EE72ECA01E2
:10450000B901A20191010F942D19CB018E010F5F0A
:104510001F4F8114910499F0EF92FF927F936F9354
:104520006F927F92BF92AF929F928F9289E593E0B4
:104530009F938F931F930F930F94D91413C0A114BB
:10454000B104B1F0EF92FF927F936F936F927F92DD
:10455000BF92AF9289E493E09F938F931F930F9341
:104560000F94D9140FB6F894DEBF0FBECDBF30C084
:10457000CD2879F0EF92FF927F936F936F927F92A5
:104580008DE393E09F938F931F930F930F94D91410
:10459000E9CF892B69F0EF92FF927F936F9385E3C8
:1045A00093E09F938F931F930F930F94D914DACFB7
:1045B000EF92FF9281E393E09F938F931F930F936A
:1045C0000F94D9140F900F900F900F900F900F90A1
:1045D00060E0C8010E94DB50E7E1F0E384917F01D5
:1045E0003FEFE31AF30A882321F00E946734F701B2
:1045F000F5CFB8018DE693E00E941D8F8AE00E94FE
:1046000067340C944C2D83E50E944134882311F4C7
:104610000C944C2D0E94A533E82E80E50E94413475
:10462000882339F00E94A533182F87FF03C00C940C
:104630004C2D1DE089E40E944134882341F00E9402
:10464000B63381110C94102FE6EEF5E00BC089E42F
:104650000E94F833F6CF319646E0E331F40711F4C7
:104660000C94102F84911813F6CF0C94712E0E9485
:104670006B450C944C2D0E94A2450C944C2D88E661
:1046800090E00E94203881110C944C2D8091A70C51
:1046900083FF02C00C944C2D83E50E944134882393
:1046A000A9F00E94C5330F94CF1ACB010E94465047
:1046B0000E94C53320E030E04AEA52E40F943F15EF
:1046C000181624F00E94A2450E94B1920E94388FD1
:1046D0000C944C2D8EE40E944134882311F40C94E8
:1046E0004C2D0E9495336093B4067093B506809369
:1046F000B6069093B7060C944C2D83E50E94F833D0
:10470000882359F083E50E944134882319F00E94E0
:10471000A53301C080E08093A70CE7E1F0E384912A
:104720008F010F5F1F4F811103C0E8E8F3E004C061
:104730000E946734F801F3CF84918F010F5F1F4F00
:10474000882321F00E946734F801F6CF8091A70CEE
:104750008111E6CDE4E8F3E018C0BB24B394B20EB7
:10476000222319F08CE20E946734F601859194911E
:10477000FC0184918F010F5F1F4F882321F00E945D
:104780006734F801F6CF2B2DDDCD84918F010F5FBB
:104790001F4F882309F4E0CD0E946734F801F5CF5C
:1047A000109230020C944C2D8FE893E00E94ACCB19
:1047B00083E50E944134811103C0E7E1F0E30DC0BD
:1047C0000E94A5338D3320F4809353020C944C2D1A
:1047D0008CE3809353020C944C2D84918F010F5FD6
:1047E0001F4F882321F00E946734F801F6CF4091D3
:1047F000530250E060E070E088E993E00E94CA8EC6
:104800008AE00E9467340C944C2D89E690E00E9467
:104810002038811111C0EFE9F3E084918F010F5F1F
:104820001F4F882321F00E946734F801F6CF0E94C1
:1048300017438AE00E94673410927E0C0C94252F57
:1048400083E50E944134882311F40C944C2D0E947E
:10485000A533182F8D3308F01CE31093CB0F0E9463
:1048600078C86B017C01212F30E0A8EEB3E00F94F3
:104870007B19C60ED71EE81EF91EC092C70FD09234
:10488000C80FE092C90FF092CA0F0C944C2D0E94F1
:104890002FF00C944C2D8091A70C83FF02C00C9438
:1048A0004C2D83E50E944134882311F40C944C2D47
:1048B0000E94C5330F94CF1A6639710514F066E96A
:1048C00070E07093630C6093620C0E94D1430C946F
:1048D0004C2D0E9455EE0C944C2D80E50E944134E5
:1048E000811106C083E50E944134882361F006C02F
:1048F0000E94A53381110C944C2DF4CF0E94953366
:104900006F3F710510F06FEF70E07093650C60936E
:10491000640C0C944C2D80E50E944134811106C03A
:104920001092650C1092640C0C944C2D0E949533DF
:10493000672B11F00C944C2DF3CF8CE40E94F833CC
:10494000882381F00E94C5336B017C0120E030E0B8
:10495000A9010F94B11B87FF0AC0F7FAF094F7F88A
:10496000F09405C0C12CD12CE12C80E4F82EF7FA8C
:10497000F094F7F8F094CCA2DDA2EEA2FFA280E0C2
:1049800090E0A0E2B1E489839A83AB83BC8380E0AA
:1049900090E0A1E9B3E48D839E83AF83B88780E084
:1049A00090E0A0EAB1E489879A87AB87BC8788E565
:1049B0000E944134882379F088E50E94413488239D
:1049C00019F00E94C53303C060E070E0CB01698339
:1049D0007A838B839C8389E50E944134882379F014
:1049E00089E50E944134882319F00E94C53303C031
:1049F00060E070E0CB016D837E838F8398878AE5CA
:104A00000E944134882379F08AE50E94413488234A
:104A100019F00E94C53303C060E070E0CB016987E4
:104A20007A878B879C8718A219A21AA21BA220E062
:104A3000AE01405E5F4FBE016F5F7F4FCE01849637
:104A40000E941CF30C944C2D83E50E94F8338823BC
:104A5000A9F080914C02882319F0E2EAF3E002C049
:104A6000E8EAF3E084918F010F5F1F4F882311F470
:104A70000C944C2D0E946734F801F4CF269A2E989E
:104A800081E080934C0264E670E080E090E00E9458
:104A90000A9E0E94B1920C944C2D0E94B7450E9430
:104AA00001FF1092650C1092640C68EE73E080E0D8
:104AB00090E00E94AE4F269A2E9A10924C0260E02F
:104AC0008EEA93E00E94A150E7C710927903E4C7F1
:104AD00083E50E944134882399F00E94C53320E089
:104AE00030E04AE754E40F94A4150F94D41A60936D
:104AF0005402709355028093560290935702CCC78C
:104B000088E50E94F83381110C94452E89E50E94B6
:104B1000F83381110C94452E8AE50E94F8338111F7
:104B20000C94452E85E40E94F83381110C94452E97
:104B30000E9401FFB1C783E50E94F833882309F47E
:104B4000ABC70E94C53320E030E04AE754E40F943D
:104B5000A4150F94D41A6093C30F7093C40F80935D
:104B6000C50F9093C60F98C7F60181916F010E94FF
:104B7000F833882309F46DC0133009F063C00E9434
:104B8000C5334B015C0120E030E040EA51E40F9472
:104B90003F1587FF4EC0A50194016091A304709159
:104BA000A4048091A5049091A6040F94671A2B0188
:104BB0003C019B01AC016091C9137091CA138091B3
:104BC000CB139091CC130F94A4156093C9137093D9
:104BD000CA138093CB139093CC13A30192016091DD
:104BE000A1137091A2138091A3139091A4130F9419
:104BF000A4156093A1137093A2138093A3139093B1
:104C0000A4136091BC0D7091BD0D8091BE0D90916B
:104C1000BF0D0F944315A30192010F94A4150F9497
:104C2000D41A6093BC0D7093BD0D8093BE0D90930C
:104C3000BF0D8092A3049092A404A092A504B09208
:104C4000A60407C00E94C533F70160837183828385
:104C500093831F5FF4E0EF0EF11C143009F084CF52
:104C60000E94A49F19C70E94C3FE83E50E9441349D
:104C7000882311F40C94311E0E9495336230710523
:104C800011F00C94311E0E94E1D28BE50E94673432
:104C90006091B30F7091B40F8091B50F9091B60FE2
:104CA00042E00E9476384091B70F5091B80F609162
:104CB000B90F7091BA0F81EC93E00E94E78E40919A
:104CC000BB0F5091BC0F6091BD0F7091BE0F8EEB6A
:104CD00093E00E94E78E8DE50E9467348AE00E948F
:104CE0006734DAC684918F010F5F1F4F882321F04C
:104CF0000E946734F801F6CF60E083E994E00E94F7
:104D0000F67461E08CE894E00E94F67461E081E85A
:104D100094E00E94F67461E081E794E00E94F674EA
:104D200060E088E694E00E94F67461E08EE594E02D
:104D30000E94F67461E084E594E00E94F67461E0FC
:104D40008CE494E00E94F67461E08EE394E00E94AB
:104D5000F67460E080E394E00E94F67461E081E222
:104D600094E00E94F67460E083E194E00E94F6749F
:104D700060E08DEF93E00E94F67460E08CEE93E0CB
:104D80000E94F67460E087ED93E00E94F67461E0A3
:104D900084EC93E00E94F6747FC680912214909177
:104DA0002314FC012081222321F060E00E94DB50CB
:104DB00073C60E94B19270C6F8019081292F2B7F93
:104DC000213419F08150C1F716C021812133D1F768
:104DD000913421F0953421F441E002C0DD24D394D4
:104DE00098012E5F3F4F89012F5F3F4FF80190815F
:104DF0009032C9F3E7CF442369F0E7E1F0E384910F
:104E00007F012FEFE21AF20A882321F00E94673413
:104E1000F701F5CFDD2069F0E0E7F5E084917F014F
:104E20003FEFE31AF30A882321F00E946734F70169
:104E3000F5CFF80181918F01882309F48DCA0E9472
:104E40006734F7CF0F94D60227C681E08093120E05
:104E50008093110E21C61092120E1092110E1CC6D4
:104E600083E50E944134882319F00E94953302C0E3
:104E700060E070E08B01112702301105D4F0E2E40C
:104E8000F3E184918F010F5F1F4F811103C0E4E7AD
:104E9000F5E004C00E946734F801F3CF84918F01DC
:104EA0000F5F1F4F882309F4F7C50E946734F8018C
:104EB000F5CF88E40E9441348823A9F00E949533FD
:104EC0006A3A71053CF06530F1E07F072CF064E050
:104ED00071E002C06AEA70E0F801EE0FFF1FEB50CC
:104EE000F24F7183608386E40E9441348823A9F0E5
:104EF0000E949533F801EE0FFF1FE750F24F7183C8
:104F000060836F3F710519F014F06FEF70E077FF69
:104F100002C060E070E07183608382E40E944134EB
:104F2000882309F4B9C50E9495336530710534F0C2
:104F3000683871052CF067E870E002C065E070E049
:104F4000000F111FF801EF50F24F71836083A4C569
:104F500088EC90E00E94203881119EC584E40E9474
:104F6000F833882309F441C00E94C5336B017C01EA
:104F700011E020E030E0A9010F943F15811101C03C
:104F800010E01093C40620E030E0A901C701B6018B
:104F90000F943F15882349F10E94C533E091F00337
:104FA00024E0E29FF0011124E054F94F6083718303
:104FB0008283938320E030E0A9016091C006709164
:104FC000C1068091C2069091C3060F943F158111CE
:104FD0000CC080E090E0A0EEBFE38093C006909309
:104FE000C106A093C206B093C3060E9452FD54C5E9
:104FF000F70181917F010E94F833882349F00E94D4
:10500000C5330F94D41AF80160837183828393832C
:105010000C5F1F4FC016D10659F70E946F9E3CC50A
:1050200066E6E62E62E0F62E05E913E1F7018191CE
:105030007F010E94F833882339F00E94C533F801BC
:1050400060837183828393830C5F1F4FF3E1053A82
:105050001F0761F721C583E50E9441348823A1F031
:105060000E94C5336093B9137093BA138093BB1336
:105070009093BC136093B5137093B6138093B713DA
:105080009093B81310E001C011E080E50E94413414
:10509000882359F00E94C5336093B9137093BA13F3
:1050A0008093BB139093BC1310E082E50E944134BF
:1050B000882359F00E94C5336093790C70937A0C61
:1050C00080937B0C90937C0C10E084E50E9441342B
:1050D000882359F00E94C5336093B5137093B613BB
:1050E0008093B7139093B813D7C4112309F4D4C491
:1050F0004091B9135091BA136091BB137091BC13D6
:105100008CE995E00E94E78E4091790C50917A0CE1
:1051100060917B0C70917C0C89E995E00E94E78E90
:105120004091B5135091B6136091B7137091B813B5
:1051300086E995E00E94E78E8AE00E946734ACC45D
:1051400081E50E94F833882351F00E9485336093F3
:10515000AC0D7093AD0D8093AE0D9093AF0D83E5C4
:105160000E94F833882351F00E94C5336093911355
:1051700070939213809393139093941384E50E94F9
:10518000F833882351F00E94C53360938D137093D8
:105190008E1380938F139093901388E50E94F833B9
:1051A000882351F00E94C5336093BD137093BE13E2
:1051B0008093BF139093C01389E50E94F83388232E
:1051C00051F00E94C5336093C1137093C213809352
:1051D000C3139093C4138AE50E94F8338823F1F037
:1051E0000E94C5336093C5137093C6138093C71391
:1051F0009093C8132DEC3CEC4CEC5DE30F943F1501
:10520000181664F0ECEAF5E084918F010F5F1F4FF0
:10521000882321F00E946734F801F6CF85E40E94CC
:10522000F833882309F438C40E94C5336093C91346
:105230007093CA138093CB139093CC132DC446E67E
:10524000C42E42E0D42E54E1E52E5EE0F52E10E0AF
:10525000F60181916F010E94F833882351F00E947A
:10526000C533F7016083718382839383812F0E940A
:105270003A321F5FF4E0EF0EF11C133049F70C9443
:10528000311E83E50E944134882309F405C40E943D
:10529000953370931F0260931E02FEC38DED90E064
:1052A0000E9420388111F8C383E50E9441348111A6
:1052B00003C0E7E1F0E33AC00091F00310E00E9480
:1052C0009533000F111FF801E45EFD4F7183608379
:1052D0008091F00390E08C01000F111F000F111F4F
:1052E0009801285E3D4F7901880F991FFC01E45E0B
:1052F000FD4F60817181072E000C880B990B0F9474
:1053000045152AE037ED43E25CE30F94A415F8015C
:10531000E55BF34F20813181428153810F94A415C5
:10532000F7016083718382839383B6C384918F0175
:105330000F5F1F4F882321F00E946734F801F6CFDA
:1053400085E40E9467348091F003805D0E94673499
:10535000E091F003F0E0EE0FFF1FE45EFD4F60818F
:1053600071818EED95E00E94048F85E20E94673482
:105370008AE00E94673490C380E50E94F833882356
:1053800009F48AC30E9495336B017C0183E50E9476
:105390004134882321F00E9495338B0102C00FEF26
:1053A0001FEFC8010196039708F076C3D7FC74C3BA
:1053B0008C2DE6EEF5E09491891709F492C43196AC
:1053C00026E0E331F207B9F78FC480E50E94F83395
:1053D000882309F461C30E9495336B017C018B0122
:1053E000672B19F0E2E4F3E17FC083E50E94F83314
:1053F000811103C0E7E1F0E307C00E9495338EED11
:1054000090E10E94928D48C384917F013FEFE31A9F
:10541000F30A882321F00E946734F701F5CF60E09A
:1054200070E08CE296E00E94048F8091E01028E505
:1054300032E06901C81AD10887FDD394CC0CDD1C79
:10544000CC0CDD1C0D2C000CEE08FF088091DF1049
:1054500028E830E04901881A910887FD9394880C68
:10546000991C880C991C092C000CAA08BB08809177
:10547000DE108F3FB9F090E0FC01EE0FFF1F8E0FA2
:105480009F1FFC01EF58FF4E0181128173E0000F56
:10549000111F7A95E1F7E4E016950795EA95E1F793
:1054A0000E5F1F4F98012F5F3F4FC901330FAA0BAB
:1054B000BB0B9C01AD01281939094A095B09A4EB12
:1054C000B0E00F946B19A7019601281939094A0910
:1054D0005B090F944F19B90189E296E00E94048F8D
:1054E0008AE00E946734D8C284918F010F5F1F4FFA
:1054F000882321F00E946734F801F6CFB60182E2DA
:1055000096E00E94048FE3E1F6E084918F010F5F43
:105510001F4F882309F4C0C20E946734F801F5CFF9
:105520008AE50E944134811108C483E50E94413418
:10553000811103C4B1C283E50E944134882319F06C
:105540000E94953302C064E071E079A368A380E50E
:105550000E944134882339F00E949533693843E131
:10556000740730F402C068EE73E07A83698304C084
:1055700088E893E19A838983BE01605E7F4FCE0104
:1055800001960E94EC5888C20E94757385C283E51B
:105590000E94F833182F882371F00E94C5330F94AE
:1055A000CF1A709332026093310221E0672B09F029
:1055B00020E02093A40C80E50E94F833882359F062
:1055C0002091310230913202232B11F00E94B63328
:1055D0008093A40C61C211115FC2E7E1F0E38491F2
:1055E0008F010F5F1F4F882321F00E946734F8015D
:1055F000F6CF8091A40C882319F060E373E002C019
:1056000063E373E08AE596E00E941D8F60913102AA
:105610007091320289E496E00E94048FE5E4F6E09E
:1056200084918F010F5F1F4F882309F435C20E94B8
:105630006734F801F5CF0E94476F2EC20E9467348D
:10564000F80184918F010F5F1F4F8111F7CFEDE6B5
:10565000F6E084918F010F5F1F4F882309F41CC26D
:105660000E946734F801F5CF81E067D60E948BED88
:1056700013C280E062D60E948BED0EC20E94456D7F
:105680000BC289E40E944134882321F00E949533A3
:10569000162F01C01FEF8AE40E944134882321F0B5
:1056A0000E949533062F01C00FEF8AE50E94F83360
:1056B000F82E811105C081E50E94F833D82E01C073
:1056C000D12C17FD06C007FD04C0F1101CC0D1107D
:1056D0001AC0E2E4F3E184918F010F5F1F4F811143
:1056E00003C0EBE9F6E004C00E946734F801F3CF91
:1056F00084918F010F5F1F4F882309F4CDC10E9451
:105700006734F801F5CF133010F40330D0F0E2E441
:10571000F3E184918F010F5F1F4F811103C0ECE70C
:10572000F6E004C00E946734F801F3CF84918F0142
:105730000F5F1F4F882309F4AFC10E946734F8013F
:10574000F5CFE12E110FFF08002E000C110B0E9467
:10575000C533D701AA0FBB1FDD2081F0FD01EE0D7F
:10576000FF1DE00FF11FEE0FFF1FEE0FFF1FEE52A8
:10577000FC4E208131814281538103C020E030E022
:10578000A901EA0EFB1E0E0D1F1D000F111F000FB9
:10579000111F0E521C4E0F948B19F80160837183F8
:1057A0008283938379C10E9477C376C10E947EED84
:1057B00073C10E9441EC70C183E50E94F8338823D5
:1057C00019F0D4D791E089270E9457E765C181E09D
:1057D0008093CD130E949EBD1092CD13882309F4AF
:1057E0005BC1E7E1F0E384918F010F5F1F4F8111EF
:1057F00003C0EBEBF6E004C00E946734F801F3CF7E
:1058000084918F010F5F1F4F882309F445C10E94C7
:105810006734F801F5CF0E94586A3EC18BE592E0EB
:105820000E942038811138C185E5E2D78823D1F163
:105830000091F00310E0A9D76B017C0120E030E07B
:10584000A9010F94B11B87FF04C0F7FAF094F7F891
:10585000F094000F111F000F111FF801E454F94FCD
:10586000C082D182E282F3820091F003F4E00F9FC4
:10587000800111240454194F20E030E048E453E43F
:10588000F80160817181828193810F94B11B181698
:105890004CF480E090E0A8E4B3E4F80180839183C5
:1058A000A283B3838CE4A4D7882309F4F5C00091C4
:1058B000F00310E06AD76B017C0120E030E0A90121
:1058C0000F94B11B87FF04C0F7FAF094F7F8F09437
:1058D000000F111F000F111FF801E854F94FC0828B
:1058E000D182E282F3820091F003F4E00F9F800105
:1058F00011240854194F20E030E048E453E4F80143
:1059000060817181828193810F94B11B18160CF014
:10591000C3C080E090E0A8E4B3E4F8018083918301
:10592000A283B383B9C08AE5ACD7811103C0E7E194
:10593000F0E337C02AD76B017C0120E030E040EA79
:1059400051EC0F94B11B87FD0AC020E030E040EA23
:1059500051E4C701B6010F943F1518161CF4E2E498
:10596000F3E10BC0C0927104D0927204E092730410
:10597000F092740491C0ABD7F80184918F010F5F4E
:105980001F4F8111F8CFE6ECF6E084918F010F5F95
:105990001F4F882309F480C09AD7F801F6CF97D714
:1059A000F80184918F010F5F1F4F8111F8CFE6EE50
:1059B000F6E084918F010F5F1F4F882319F087D77E
:1059C000F801F7CF40917104509172046091730413
:1059D0007091740483EE96E00E94E78E8AE077D798
:1059E0005BC081E0809300021092860483E549D772
:1059F000882331F0BBD681114FC00F943B054CC0BA
:105A000083E5F6D6F8CF0E94C49A46C0F0902414DD
:105A10000E94C3FE1091D10D80E026D6FF2009F12F
:105A2000E7E1F0E384918F010F5F1F4F882319F0A6
:105A30004ED7F801F7CF84E54AD76F2D70E080E0AC
:105A400090E04AE00E94B53780E241D7E7E0F7E016
:105A500084918F010F5F1F4F8823F1F038D7F80131
:105A6000F7CF1092A30C812FFFD5E7E1F0E38491EB
:105A70008F010F5F1F4F882319F029D7F801F7CF47
:105A80006091A30C70E085EF96E00E94048F8AE09D
:105A90001ED702C00E94C49A10927E0C0F941E055D
:105AA000D4C10E940A5D0E9409CFF6CF0E94C3FEB6
:105AB00080E0DAD580EA90E0CED280E00FD7EFD256
:105AC00011E01093120E88E593D6B82E89E590D692
:105AD000082F8AE58DD6A82EB11004C0011104C08C
